{
  "_format": "hh-sol-artifact-1",
  "contractName": "Business",
  "sourceName": "contracts/Business.sol",
  "abi": [
    {
      "inputs": [],
      "stateMutability": "nonpayable",
      "type": "constructor"
    },
    {
      "inputs": [],
      "name": "getAllTokens",
      "outputs": [
        {
          "components": [
            {
              "internalType": "uint256",
              "name": "price",
              "type": "uint256"
            },
            {
              "internalType": "uint256",
              "name": "tokenId",
              "type": "uint256"
            },
            {
              "internalType": "string",
              "name": "tokenURI",
              "type": "string"
            },
            {
              "internalType": "uint256",
              "name": "dateOfMint",
              "type": "uint256"
            },
            {
              "internalType": "address payable",
              "name": "creator",
              "type": "address"
            },
            {
              "internalType": "uint256",
              "name": "sellStartTimestamp",
              "type": "uint256"
            },
            {
              "internalType": "uint256",
              "name": "sellEndTimestamp",
              "type": "uint256"
            }
          ],
          "internalType": "struct Business.Token[]",
          "name": "",
          "type": "tuple[]"
        }
      ],
      "stateMutability": "view",
      "type": "function"
    },
    {
      "inputs": [
        {
          "internalType": "contract IERC721",
          "name": "_nft",
          "type": "address"
        },
        {
          "internalType": "uint256",
          "name": "_tokenId",
          "type": "uint256"
        }
      ],
      "name": "purchaseToken",
      "outputs": [],
      "stateMutability": "payable",
      "type": "function"
    },
    {
      "inputs": [],
      "name": "royaltyPercentage",
      "outputs": [
        {
          "internalType": "uint256",
          "name": "",
          "type": "uint256"
        }
      ],
      "stateMutability": "view",
      "type": "function"
    },
    {
      "inputs": [
        {
          "internalType": "uint256",
          "name": "_price",
          "type": "uint256"
        },
        {
          "internalType": "string",
          "name": "_tokenURI",
          "type": "string"
        },
        {
          "internalType": "uint256",
          "name": "_sellStartTimestamp",
          "type": "uint256"
        },
        {
          "internalType": "uint256",
          "name": "_sellEndTimestamp",
          "type": "uint256"
        },
        {
          "internalType": "contract IERC721",
          "name": "_nft",
          "type": "address"
        },
        {
          "internalType": "uint256",
          "name": "_initialEdition",
          "type": "uint256"
        },
        {
          "internalType": "uint256",
          "name": "_numberOfEditions",
          "type": "uint256"
        }
      ],
      "name": "saveAndTransferTokensToBusinessContract",
      "outputs": [],
      "stateMutability": "nonpayable",
      "type": "function"
    },
    {
      "inputs": [
        {
          "internalType": "uint256",
          "name": "",
          "type": "uint256"
        }
      ],
      "name": "tokenList",
      "outputs": [
        {
          "internalType": "uint256",
          "name": "price",
          "type": "uint256"
        },
        {
          "internalType": "uint256",
          "name": "tokenId",
          "type": "uint256"
        },
        {
          "internalType": "string",
          "name": "tokenURI",
          "type": "string"
        },
        {
          "internalType": "uint256",
          "name": "dateOfMint",
          "type": "uint256"
        },
        {
          "internalType": "address payable",
          "name": "creator",
          "type": "address"
        },
        {
          "internalType": "uint256",
          "name": "sellStartTimestamp",
          "type": "uint256"
        },
        {
          "internalType": "uint256",
          "name": "sellEndTimestamp",
          "type": "uint256"
        }
      ],
      "stateMutability": "view",
      "type": "function"
    },
    {
      "inputs": [
        {
          "internalType": "uint256",
          "name": "",
          "type": "uint256"
        }
      ],
      "name": "tokens",
      "outputs": [
        {
          "internalType": "uint256",
          "name": "price",
          "type": "uint256"
        },
        {
          "internalType": "uint256",
          "name": "tokenId",
          "type": "uint256"
        },
        {
          "internalType": "string",
          "name": "tokenURI",
          "type": "string"
        },
        {
          "internalType": "uint256",
          "name": "dateOfMint",
          "type": "uint256"
        },
        {
          "internalType": "address payable",
          "name": "creator",
          "type": "address"
        },
        {
          "internalType": "uint256",
          "name": "sellStartTimestamp",
          "type": "uint256"
        },
        {
          "internalType": "uint256",
          "name": "sellEndTimestamp",
          "type": "uint256"
        }
      ],
      "stateMutability": "view",
      "type": "function"
    },
    {
      "inputs": [
        {
          "internalType": "uint256",
          "name": "",
          "type": "uint256"
        }
      ],
      "name": "tokensExistence",
      "outputs": [
        {
          "internalType": "bool",
          "name": "",
          "type": "bool"
        }
      ],
      "stateMutability": "view",
      "type": "function"
    }
  ],
  "bytecode": "0x608060405234801561001057600080fd5b50611c97806100206000396000f3fe6080604052600436106100705760003560e01c80634614c0b71161004e5780634614c0b7146100e55780634f64b2be146101225780638a71bb2d146101655780639ead72221461019057610070565b80631cc2c911146100755780632a5c792a1461009157806333c0f319146100bc575b600080fd5b61008f600480360381019061008a9190610e0e565b6101d3565b005b34801561009d57600080fd5b506100a6610727565b6040516100b3919061106c565b60405180910390f35b3480156100c857600080fd5b506100e360048036038101906100de91906111c3565b6108a0565b005b3480156100f157600080fd5b5061010c60048036038101906101079190611281565b610b4b565b60405161011991906112c9565b60405180910390f35b34801561012e57600080fd5b5061014960048036038101906101449190611281565b610b6b565b60405161015c979695949392919061134c565b60405180910390f35b34801561017157600080fd5b5061017a610c55565b60405161018791906113c2565b60405180910390f35b34801561019c57600080fd5b506101b760048036038101906101b29190611281565b610c5a565b6040516101ca979695949392919061134c565b60405180910390f35b6002600082815260200190815260200160002060009054906101000a900460ff16610233576040517f08c379a000000000000000000000000000000000000000000000000000000000815260040161022a90611429565b60405180910390fd5b6000600160008381526020019081526020016000206040518060e0016040529081600082015481526020016001820154815260200160028201805461027790611478565b80601f01602080910402602001604051908101604052809291908181526020018280546102a390611478565b80156102f05780601f106102c5576101008083540402835291602001916102f0565b820191906000526020600020905b8154815290600101906020018083116102d357829003601f168201915b50505050508152602001600382015481526020016004820160009054906101000a900473ffffffffffffffffffffffffffffffffffffffff1673ffffffffffffffffffffffffffffffffffffffff1673ffffffffffffffffffffffffffffffffffffffff168152602001600582015481526020016006820154815250509050806000015134146103b5576040517f08c379a00000000000000000000000000000000000000000000000000000000081526004016103ac9061151b565b60405180910390fd5b60008373ffffffffffffffffffffffffffffffffffffffff16636352211e83602001516040518263ffffffff1660e01b81526004016103f491906113c2565b602060405180830381865afa158015610411573d6000803e3d6000fd5b505050506040513d601f19601f820116820180604052508101906104359190611567565b90503073ffffffffffffffffffffffffffffffffffffffff168173ffffffffffffffffffffffffffffffffffffffff1603610520576000826080015173ffffffffffffffffffffffffffffffffffffffff1634604051610494906115c5565b60006040518083038185875af1925050503d80600081146104d1576040519150601f19603f3d011682016040523d82523d6000602084013e6104d6565b606091505b505090508061051a576040517f08c379a000000000000000000000000000000000000000000000000000000000815260040161051190611626565b60405180910390fd5b506106ae565b60006064600f346105319190611675565b61053b91906116e6565b90506000813461054b9190611717565b90506000846080015173ffffffffffffffffffffffffffffffffffffffff1683604051610577906115c5565b60006040518083038185875af1925050503d80600081146105b4576040519150601f19603f3d011682016040523d82523d6000602084013e6105b9565b606091505b50509050806105fd576040517f08c379a00000000000000000000000000000000000000000000000000000000081526004016105f490611797565b60405180910390fd5b60008473ffffffffffffffffffffffffffffffffffffffff1683604051610623906115c5565b60006040518083038185875af1925050503d8060008114610660576040519150601f19603f3d011682016040523d82523d6000602084013e610665565b606091505b50509050806106a9576040517f08c379a00000000000000000000000000000000000000000000000000000000081526004016106a090611803565b60405180910390fd5b505050505b8373ffffffffffffffffffffffffffffffffffffffff166323b872dd823385602001516040518463ffffffff1660e01b81526004016106ef93929190611832565b600060405180830381600087803b15801561070957600080fd5b505af115801561071d573d6000803e3d6000fd5b5050505050505050565b60606000805480602002602001604051908101604052809291908181526020016000905b8282101561089757838290600052602060002090600702016040518060e0016040529081600082015481526020016001820154815260200160028201805461079290611478565b80601f01602080910402602001604051908101604052809291908181526020018280546107be90611478565b801561080b5780601f106107e05761010080835404028352916020019161080b565b820191906000526020600020905b8154815290600101906020018083116107ee57829003601f168201915b50505050508152602001600382015481526020016004820160009054906101000a900473ffffffffffffffffffffffffffffffffffffffff1673ffffffffffffffffffffffffffffffffffffffff1673ffffffffffffffffffffffffffffffffffffffff168152602001600582015481526020016006820154815250508152602001906001019061074b565b50505050905090565b60008290505b81836108b29190611869565b811015610b41576040518060e001604052808981526020018281526020018881526020014281526020013373ffffffffffffffffffffffffffffffffffffffff16815260200187815260200186815250600160008381526020019081526020016000206000820151816000015560208201518160010155604082015181600201908161093e9190611a49565b506060820151816003015560808201518160040160006101000a81548173ffffffffffffffffffffffffffffffffffffffff021916908373ffffffffffffffffffffffffffffffffffffffff16021790555060a0820151816005015560c082015181600601559050506000600160008381526020019081526020016000209080600181540180825580915050600190039060005260206000209060070201600090919091909150600082015481600001556001820154816001015560028201816002019081610a0d9190611b31565b50600382015481600301556004820160009054906101000a900473ffffffffffffffffffffffffffffffffffffffff168160040160006101000a81548173ffffffffffffffffffffffffffffffffffffffff021916908373ffffffffffffffffffffffffffffffffffffffff1602179055506005820154816005015560068201548160060155505060016002600083815260200190815260200160002060006101000a81548160ff0219169083151502179055508373ffffffffffffffffffffffffffffffffffffffff166323b872dd3330846040518463ffffffff1660e01b8152600401610afe93929190611832565b600060405180830381600087803b158015610b1857600080fd5b505af1158015610b2c573d6000803e3d6000fd5b5050505080610b3a90611c19565b90506108a6565b5050505050505050565b60026020528060005260406000206000915054906101000a900460ff1681565b6001602052806000526040600020600091509050806000015490806001015490806002018054610b9a90611478565b80601f0160208091040260200160405190810160405280929190818152602001828054610bc690611478565b8015610c135780601f10610be857610100808354040283529160200191610c13565b820191906000526020600020905b815481529060010190602001808311610bf657829003601f168201915b5050505050908060030154908060040160009054906101000a900473ffffffffffffffffffffffffffffffffffffffff16908060050154908060060154905087565b600f81565b60008181548110610c6a57600080fd5b9060005260206000209060070201600091509050806000015490806001015490806002018054610c9990611478565b80601f0160208091040260200160405190810160405280929190818152602001828054610cc590611478565b8015610d125780601f10610ce757610100808354040283529160200191610d12565b820191906000526020600020905b815481529060010190602001808311610cf557829003601f168201915b5050505050908060030154908060040160009054906101000a900473ffffffffffffffffffffffffffffffffffffffff16908060050154908060060154905087565b6000604051905090565b600080fd5b600080fd5b600073ffffffffffffffffffffffffffffffffffffffff82169050919050565b6000610d9382610d68565b9050919050565b6000610da582610d88565b9050919050565b610db581610d9a565b8114610dc057600080fd5b50565b600081359050610dd281610dac565b92915050565b6000819050919050565b610deb81610dd8565b8114610df657600080fd5b50565b600081359050610e0881610de2565b92915050565b60008060408385031215610e2557610e24610d5e565b5b6000610e3385828601610dc3565b9250506020610e4485828601610df9565b9150509250929050565b600081519050919050565b600082825260208201905092915050565b6000819050602082019050919050565b610e8381610dd8565b82525050565b600081519050919050565b600082825260208201905092915050565b60005b83811015610ec3578082015181840152602081019050610ea8565b60008484015250505050565b6000601f19601f8301169050919050565b6000610eeb82610e89565b610ef58185610e94565b9350610f05818560208601610ea5565b610f0e81610ecf565b840191505092915050565b6000610f2482610d68565b9050919050565b610f3481610f19565b82525050565b600060e083016000830151610f526000860182610e7a565b506020830151610f656020860182610e7a565b5060408301518482036040860152610f7d8282610ee0565b9150506060830151610f926060860182610e7a565b506080830151610fa56080860182610f2b565b5060a0830151610fb860a0860182610e7a565b5060c0830151610fcb60c0860182610e7a565b508091505092915050565b6000610fe28383610f3a565b905092915050565b6000602082019050919050565b600061100282610e4e565b61100c8185610e59565b93508360208202850161101e85610e6a565b8060005b8581101561105a578484038952815161103b8582610fd6565b945061104683610fea565b925060208a01995050600181019050611022565b50829750879550505050505092915050565b600060208201905081810360008301526110868184610ff7565b905092915050565b600080fd5b600080fd5b7f4e487b7100000000000000000000000000000000000000000000000000000000600052604160045260246000fd5b6110d082610ecf565b810181811067ffffffffffffffff821117156110ef576110ee611098565b5b80604052505050565b6000611102610d54565b905061110e82826110c7565b919050565b600067ffffffffffffffff82111561112e5761112d611098565b5b61113782610ecf565b9050602081019050919050565b82818337600083830152505050565b600061116661116184611113565b6110f8565b90508281526020810184848401111561118257611181611093565b5b61118d848285611144565b509392505050565b600082601f8301126111aa576111a961108e565b5b81356111ba848260208601611153565b91505092915050565b600080600080600080600060e0888a0312156111e2576111e1610d5e565b5b60006111f08a828b01610df9565b975050602088013567ffffffffffffffff81111561121157611210610d63565b5b61121d8a828b01611195565b965050604061122e8a828b01610df9565b955050606061123f8a828b01610df9565b94505060806112508a828b01610dc3565b93505060a06112618a828b01610df9565b92505060c06112728a828b01610df9565b91505092959891949750929550565b60006020828403121561129757611296610d5e565b5b60006112a584828501610df9565b91505092915050565b60008115159050919050565b6112c3816112ae565b82525050565b60006020820190506112de60008301846112ba565b92915050565b6112ed81610dd8565b82525050565b600082825260208201905092915050565b600061130f82610e89565b61131981856112f3565b9350611329818560208601610ea5565b61133281610ecf565b840191505092915050565b61134681610f19565b82525050565b600060e082019050611361600083018a6112e4565b61136e60208301896112e4565b81810360408301526113808188611304565b905061138f60608301876112e4565b61139c608083018661133d565b6113a960a08301856112e4565b6113b660c08301846112e4565b98975050505050505050565b60006020820190506113d760008301846112e4565b92915050565b7f546f6b656e20646f65736e277420657869737400000000000000000000000000600082015250565b60006114136013836112f3565b915061141e826113dd565b602082019050919050565b6000602082019050818103600083015261144281611406565b9050919050565b7f4e487b7100000000000000000000000000000000000000000000000000000000600052602260045260246000fd5b6000600282049050600182168061149057607f821691505b6020821081036114a3576114a2611449565b5b50919050565b7f546f74616c206574686572206d75737420626520657175616c20746f2070726960008201527f6365206f662074686520746f6b656e0000000000000000000000000000000000602082015250565b6000611505602f836112f3565b9150611510826114a9565b604082019050919050565b60006020820190508181036000830152611534816114f8565b9050919050565b61154481610d88565b811461154f57600080fd5b50565b6000815190506115618161153b565b92915050565b60006020828403121561157d5761157c610d5e565b5b600061158b84828501611552565b91505092915050565b600081905092915050565b50565b60006115af600083611594565b91506115ba8261159f565b600082019050919050565b60006115d0826115a2565b9150819050919050565b7f5472616e73616374696f6e206661696c65640000000000000000000000000000600082015250565b60006116106012836112f3565b915061161b826115da565b602082019050919050565b6000602082019050818103600083015261163f81611603565b9050919050565b7f4e487b7100000000000000000000000000000000000000000000000000000000600052601160045260246000fd5b600061168082610dd8565b915061168b83610dd8565b925082820261169981610dd8565b915082820484148315176116b0576116af611646565b5b5092915050565b7f4e487b7100000000000000000000000000000000000000000000000000000000600052601260045260246000fd5b60006116f182610dd8565b91506116fc83610dd8565b92508261170c5761170b6116b7565b5b828204905092915050565b600061172282610dd8565b915061172d83610dd8565b925082820390508181111561174557611744611646565b5b92915050565b7f5472616e73616374696f6e20746f2063726561746f72206661696c6564000000600082015250565b6000611781601d836112f3565b915061178c8261174b565b602082019050919050565b600060208201905081810360008301526117b081611774565b9050919050565b7f5472616e73616374696f6e20746f206f776e6572206661696c65640000000000600082015250565b60006117ed601b836112f3565b91506117f8826117b7565b602082019050919050565b6000602082019050818103600083015261181c816117e0565b9050919050565b61182c81610d88565b82525050565b60006060820190506118476000830186611823565b6118546020830185611823565b61186160408301846112e4565b949350505050565b600061187482610dd8565b915061187f83610dd8565b925082820190508082111561189757611896611646565b5b92915050565b60008190508160005260206000209050919050565b60006020601f8301049050919050565b600082821b905092915050565b6000600883026118ff7fffffffffffffffffffffffffffffffffffffffffffffffffffffffffffffffff826118c2565b61190986836118c2565b95508019841693508086168417925050509392505050565b6000819050919050565b600061194661194161193c84610dd8565b611921565b610dd8565b9050919050565b6000819050919050565b6119608361192b565b61197461196c8261194d565b8484546118cf565b825550505050565b600090565b61198961197c565b611994818484611957565b505050565b5b818110156119b8576119ad600082611981565b60018101905061199a565b5050565b601f8211156119fd576119ce8161189d565b6119d7846118b2565b810160208510156119e6578190505b6119fa6119f2856118b2565b830182611999565b50505b505050565b600082821c905092915050565b6000611a2060001984600802611a02565b1980831691505092915050565b6000611a398383611a0f565b9150826002028217905092915050565b611a5282610e89565b67ffffffffffffffff811115611a6b57611a6a611098565b5b611a758254611478565b611a808282856119bc565b600060209050601f831160018114611ab35760008415611aa1578287015190505b611aab8582611a2d565b865550611b13565b601f198416611ac18661189d565b60005b82811015611ae957848901518255600182019150602085019450602081019050611ac4565b86831015611b065784890151611b02601f891682611a0f565b8355505b6001600288020188555050505b505050505050565b600081549050611b2a81611478565b9050919050565b818103611b3f575050611c17565b611b4882611b1b565b67ffffffffffffffff811115611b6157611b60611098565b5b611b6b8254611478565b611b768282856119bc565b6000601f831160018114611ba55760008415611b93578287015490505b611b9d8582611a2d565b865550611c10565b601f198416611bb38761189d565b9650611bbe8661189d565b60005b82811015611be657848901548255600182019150600185019450602081019050611bc1565b86831015611c035784890154611bff601f891682611a0f565b8355505b6001600288020188555050505b5050505050505b565b6000611c2482610dd8565b91507fffffffffffffffffffffffffffffffffffffffffffffffffffffffffffffffff8203611c5657611c55611646565b5b60018201905091905056fea26469706673582212201f611d24acc5d0d5786c069c6b4d8948c2d7f7c7bebc62bb5f20d382c14e217564736f6c63430008140033",
  "linkReferences": {},
  "deployedLinkReferences": {}
}