{
  "_format": "hh-sol-artifact-1",
  "contractName": "Business",
  "sourceName": "contracts/Business.sol",
  "abi": [
    {
      "inputs": [],
      "stateMutability": "nonpayable",
      "type": "constructor"
    },
    {
      "inputs": [],
      "name": "businessOwner",
      "outputs": [
        {
          "internalType": "address payable",
          "name": "",
          "type": "address"
        }
      ],
      "stateMutability": "view",
      "type": "function"
    },
    {
      "inputs": [],
      "name": "findAllTokens",
      "outputs": [
        {
          "components": [
            {
              "components": [
                {
                  "internalType": "string",
                  "name": "title",
                  "type": "string"
                },
                {
                  "internalType": "string",
                  "name": "artist",
                  "type": "string"
                },
                {
                  "internalType": "string",
                  "name": "imageURL",
                  "type": "string"
                },
                {
                  "internalType": "string",
                  "name": "description",
                  "type": "string"
                }
              ],
              "internalType": "struct Business.Song",
              "name": "song",
              "type": "tuple"
            },
            {
              "internalType": "bool",
              "name": "isOnSale",
              "type": "bool"
            },
            {
              "internalType": "uint256",
              "name": "price",
              "type": "uint256"
            },
            {
              "internalType": "uint256",
              "name": "tokenId",
              "type": "uint256"
            },
            {
              "internalType": "string",
              "name": "tokenURI",
              "type": "string"
            },
            {
              "internalType": "uint256",
              "name": "dateOfMint",
              "type": "uint256"
            },
            {
              "internalType": "address",
              "name": "currentOwner",
              "type": "address"
            },
            {
              "internalType": "address payable",
              "name": "creator",
              "type": "address"
            }
          ],
          "internalType": "struct Business.Token[]",
          "name": "",
          "type": "tuple[]"
        }
      ],
      "stateMutability": "view",
      "type": "function"
    },
    {
      "inputs": [],
      "name": "findCountOfTokensOnSale",
      "outputs": [
        {
          "internalType": "uint256",
          "name": "",
          "type": "uint256"
        }
      ],
      "stateMutability": "view",
      "type": "function"
    },
    {
      "inputs": [
        {
          "internalType": "uint256",
          "name": "_tokenId",
          "type": "uint256"
        }
      ],
      "name": "findPurchaseHistoryOfToken",
      "outputs": [
        {
          "components": [
            {
              "internalType": "address",
              "name": "to",
              "type": "address"
            },
            {
              "internalType": "address",
              "name": "from",
              "type": "address"
            },
            {
              "internalType": "uint256",
              "name": "date",
              "type": "uint256"
            },
            {
              "internalType": "uint256",
              "name": "price",
              "type": "uint256"
            }
          ],
          "internalType": "struct Business.PurchaseHistory[]",
          "name": "",
          "type": "tuple[]"
        }
      ],
      "stateMutability": "view",
      "type": "function"
    },
    {
      "inputs": [
        {
          "internalType": "contract IERC721",
          "name": "_nft",
          "type": "address"
        },
        {
          "internalType": "uint256",
          "name": "_price",
          "type": "uint256"
        },
        {
          "internalType": "uint256",
          "name": "_tokenId",
          "type": "uint256"
        }
      ],
      "name": "listTokenForSale",
      "outputs": [],
      "stateMutability": "nonpayable",
      "type": "function"
    },
    {
      "inputs": [
        {
          "internalType": "contract IERC721",
          "name": "_nft",
          "type": "address"
        },
        {
          "internalType": "uint256",
          "name": "_tokenId",
          "type": "uint256"
        }
      ],
      "name": "purchaseToken",
      "outputs": [],
      "stateMutability": "payable",
      "type": "function"
    },
    {
      "inputs": [
        {
          "internalType": "string",
          "name": "_title",
          "type": "string"
        },
        {
          "internalType": "string",
          "name": "_artist",
          "type": "string"
        },
        {
          "internalType": "string",
          "name": "_imageURL",
          "type": "string"
        },
        {
          "internalType": "string",
          "name": "_description",
          "type": "string"
        },
        {
          "internalType": "uint256",
          "name": "_price",
          "type": "uint256"
        },
        {
          "internalType": "string",
          "name": "_tokenURI",
          "type": "string"
        },
        {
          "internalType": "contract IERC721",
          "name": "_nft",
          "type": "address"
        },
        {
          "internalType": "uint256",
          "name": "_initialEdition",
          "type": "uint256"
        },
        {
          "internalType": "uint256",
          "name": "_numberOfEditions",
          "type": "uint256"
        }
      ],
      "name": "saveAndTransferTokensToBusinessContract",
      "outputs": [],
      "stateMutability": "nonpayable",
      "type": "function"
    },
    {
      "inputs": [],
      "name": "tokenCount",
      "outputs": [
        {
          "internalType": "uint256",
          "name": "",
          "type": "uint256"
        }
      ],
      "stateMutability": "view",
      "type": "function"
    },
    {
      "inputs": [
        {
          "internalType": "uint256",
          "name": "",
          "type": "uint256"
        }
      ],
      "name": "tokens",
      "outputs": [
        {
          "components": [
            {
              "internalType": "string",
              "name": "title",
              "type": "string"
            },
            {
              "internalType": "string",
              "name": "artist",
              "type": "string"
            },
            {
              "internalType": "string",
              "name": "imageURL",
              "type": "string"
            },
            {
              "internalType": "string",
              "name": "description",
              "type": "string"
            }
          ],
          "internalType": "struct Business.Song",
          "name": "song",
          "type": "tuple"
        },
        {
          "internalType": "bool",
          "name": "isOnSale",
          "type": "bool"
        },
        {
          "internalType": "uint256",
          "name": "price",
          "type": "uint256"
        },
        {
          "internalType": "uint256",
          "name": "tokenId",
          "type": "uint256"
        },
        {
          "internalType": "string",
          "name": "tokenURI",
          "type": "string"
        },
        {
          "internalType": "uint256",
          "name": "dateOfMint",
          "type": "uint256"
        },
        {
          "internalType": "address",
          "name": "currentOwner",
          "type": "address"
        },
        {
          "internalType": "address payable",
          "name": "creator",
          "type": "address"
        }
      ],
      "stateMutability": "view",
      "type": "function"
    },
    {
      "inputs": [
        {
          "internalType": "uint256",
          "name": "",
          "type": "uint256"
        }
      ],
      "name": "tokensExist",
      "outputs": [
        {
          "internalType": "bool",
          "name": "",
          "type": "bool"
        }
      ],
      "stateMutability": "view",
      "type": "function"
    },
    {
      "inputs": [
        {
          "internalType": "uint256",
          "name": "",
          "type": "uint256"
        },
        {
          "internalType": "uint256",
          "name": "",
          "type": "uint256"
        }
      ],
      "name": "tokensPurchaseHistory",
      "outputs": [
        {
          "internalType": "address",
          "name": "to",
          "type": "address"
        },
        {
          "internalType": "address",
          "name": "from",
          "type": "address"
        },
        {
          "internalType": "uint256",
          "name": "date",
          "type": "uint256"
        },
        {
          "internalType": "uint256",
          "name": "price",
          "type": "uint256"
        }
      ],
      "stateMutability": "view",
      "type": "function"
    },
    {
      "inputs": [],
      "name": "totalEarningsFromArtists",
      "outputs": [
        {
          "internalType": "uint256",
          "name": "",
          "type": "uint256"
        }
      ],
      "stateMutability": "view",
      "type": "function"
    },
    {
      "inputs": [],
      "name": "withdrawBalance",
      "outputs": [],
      "stateMutability": "nonpayable",
      "type": "function"
    },
    {
      "stateMutability": "payable",
      "type": "receive"
    }
  ],
  "bytecode": "0x60a060405234801561001057600080fd5b503373ffffffffffffffffffffffffffffffffffffffff1660808173ffffffffffffffffffffffffffffffffffffffff168152505060805161364c61006e600039600081816112f5015281816113850152611c52015261364c6000f3fe6080604052600436106100c65760003560e01c8063789f8d2e1161007f5780639f181b5e116100595780639f181b5e14610270578063a73ebd711461029b578063c964959c146102c6578063e0cd6a39146102ef576100cd565b8063789f8d2e146101dc5780637f6263991461021c578063984cc5f314610247576100cd565b80631cc2c911146100d257806323e725d1146100ee5780633672aa03146101195780634f64b2be14610144578063519f1dc6146101885780635fd8c710146101c5576100cd565b366100cd57005b600080fd5b6100ec60048036038101906100e79190612012565b61032c565b005b3480156100fa57600080fd5b50610103610d7e565b6040516101109190612061565b60405180910390f35b34801561012557600080fd5b5061012e610d84565b60405161013b9190612061565b60405180910390f35b34801561015057600080fd5b5061016b6004803603810190610166919061207c565b610dec565b60405161017f989796959493929190612246565b60405180910390f35b34801561019457600080fd5b506101af60048036038101906101aa919061207c565b61115b565b6040516101bc91906123f4565b60405180910390f35b3480156101d157600080fd5b506101da6112f3565b005b3480156101e857600080fd5b5061020360048036038101906101fe9190612416565b611450565b6040516102139493929190612456565b60405180910390f35b34801561022857600080fd5b506102316114dd565b60405161023e91906126aa565b60405180910390f35b34801561025357600080fd5b5061026e60048036038101906102699190612801565b61197e565b005b34801561027c57600080fd5b50610285611c4a565b6040516102929190612061565b60405180910390f35b3480156102a757600080fd5b506102b0611c50565b6040516102bd9190612957565b60405180910390f35b3480156102d257600080fd5b506102ed60048036038101906102e89190612972565b611c74565b005b3480156102fb57600080fd5b506103166004803603810190610311919061207c565b611e97565b60405161032391906129c5565b60405180910390f35b6003600082815260200190815260200160002060009054906101000a900460ff1661038c576040517f08c379a000000000000000000000000000000000000000000000000000000000815260040161038390612a2c565b60405180910390fd5b60006002600083815260200190815260200160002090508060090160009054906101000a900473ffffffffffffffffffffffffffffffffffffffff1673ffffffffffffffffffffffffffffffffffffffff163373ffffffffffffffffffffffffffffffffffffffff1603610435576040517f08c379a000000000000000000000000000000000000000000000000000000000815260040161042c90612a98565b60405180910390fd5b8060040160009054906101000a900460ff16610486576040517f08c379a000000000000000000000000000000000000000000000000000000000815260040161047d90612b2a565b60405180910390fd5b806005015434146104cc576040517f08c379a00000000000000000000000000000000000000000000000000000000081526004016104c390612bbc565b60405180910390fd5b60008373ffffffffffffffffffffffffffffffffffffffff16636352211e83600601546040518263ffffffff1660e01b815260040161050b9190612061565b602060405180830381865afa158015610528573d6000803e3d6000fd5b505050506040513d601f19601f8201168201806040525081019061054c9190612c08565b90503073ffffffffffffffffffffffffffffffffffffffff168173ffffffffffffffffffffffffffffffffffffffff16036106db576004600084815260200190815260200160002060405180608001604052803373ffffffffffffffffffffffffffffffffffffffff16815260200184600a0160009054906101000a900473ffffffffffffffffffffffffffffffffffffffff1673ffffffffffffffffffffffffffffffffffffffff1681526020014281526020018460050154815250908060018154018082558091505060019003906000526020600020906004020160009091909190915060008201518160000160006101000a81548173ffffffffffffffffffffffffffffffffffffffff021916908373ffffffffffffffffffffffffffffffffffffffff16021790555060208201518160010160006101000a81548173ffffffffffffffffffffffffffffffffffffffff021916908373ffffffffffffffffffffffffffffffffffffffff1602179055506040820151816002015560608201518160030155505061080d565b6004600084815260200190815260200160002060405180608001604052803373ffffffffffffffffffffffffffffffffffffffff1681526020018373ffffffffffffffffffffffffffffffffffffffff1681526020014281526020018460050154815250908060018154018082558091505060019003906000526020600020906004020160009091909190915060008201518160000160006101000a81548173ffffffffffffffffffffffffffffffffffffffff021916908373ffffffffffffffffffffffffffffffffffffffff16021790555060208201518160010160006101000a81548173ffffffffffffffffffffffffffffffffffffffff021916908373ffffffffffffffffffffffffffffffffffffffff160217905550604082015181600201556060820151816003015550505b3073ffffffffffffffffffffffffffffffffffffffff168173ffffffffffffffffffffffffffffffffffffffff1603610a0a5760006064600a346108519190612c64565b61085b9190612cd5565b90506000813461086b9190612d06565b905060008373ffffffffffffffffffffffffffffffffffffffff168360405161089390612d6b565b60006040518083038185875af1925050503d80600081146108d0576040519150601f19603f3d011682016040523d82523d6000602084013e6108d5565b606091505b5050905080610919576040517f08c379a000000000000000000000000000000000000000000000000000000000815260040161091090612df2565b60405180910390fd5b816001600082825461092b9190612e12565b9250508190555084600a0160009054906101000a900473ffffffffffffffffffffffffffffffffffffffff1673ffffffffffffffffffffffffffffffffffffffff168260405161097a90612d6b565b60006040518083038185875af1925050503d80600081146109b7576040519150601f19603f3d011682016040523d82523d6000602084013e6109bc565b606091505b50508091505080610a02576040517f08c379a00000000000000000000000000000000000000000000000000000000081526004016109f990612eb8565b60405180910390fd5b505050610ca5565b60006064600a34610a1b9190612c64565b610a259190612cd5565b905060006064600334610a389190612c64565b610a429190612cd5565b905060008183610a529190612e12565b34610a5d9190612d06565b905060003073ffffffffffffffffffffffffffffffffffffffff1683604051610a8590612d6b565b60006040518083038185875af1925050503d8060008114610ac2576040519150601f19603f3d011682016040523d82523d6000602084013e610ac7565b606091505b5050905080610b0b576040517f08c379a0000000000000000000000000000000000000000000000000000000008152600401610b0290612df2565b60405180910390fd5b8360016000828254610b1d9190612e12565b9250508190555085600a0160009054906101000a900473ffffffffffffffffffffffffffffffffffffffff1673ffffffffffffffffffffffffffffffffffffffff1684604051610b6c90612d6b565b60006040518083038185875af1925050503d8060008114610ba9576040519150601f19603f3d011682016040523d82523d6000602084013e610bae565b606091505b50508091505080610bf4576040517f08c379a0000000000000000000000000000000000000000000000000000000008152600401610beb90612f4a565b60405180910390fd5b8473ffffffffffffffffffffffffffffffffffffffff1682604051610c1890612d6b565b60006040518083038185875af1925050503d8060008114610c55576040519150601f19603f3d011682016040523d82523d6000602084013e610c5a565b606091505b50508091505080610ca0576040517f08c379a0000000000000000000000000000000000000000000000000000000008152600401610c9790612fdc565b60405180910390fd5b505050505b60008260040160006101000a81548160ff021916908315150217905550338260090160006101000a81548173ffffffffffffffffffffffffffffffffffffffff021916908373ffffffffffffffffffffffffffffffffffffffff1602179055508373ffffffffffffffffffffffffffffffffffffffff166323b872dd823385600601546040518463ffffffff1660e01b8152600401610d4693929190612ffc565b600060405180830381600087803b158015610d6057600080fd5b505af1158015610d74573d6000803e3d6000fd5b5050505050505050565b60015481565b600080600090506000600190505b6000548111610de4576002600082815260200190815260200160002060040160009054906101000a900460ff1615610dd3578180610dcf90613033565b9250505b80610ddd90613033565b9050610d92565b508091505090565b600260205280600052604060002060009150905080600001604051806080016040529081600082018054610e1f906130aa565b80601f0160208091040260200160405190810160405280929190818152602001828054610e4b906130aa565b8015610e985780601f10610e6d57610100808354040283529160200191610e98565b820191906000526020600020905b815481529060010190602001808311610e7b57829003601f168201915b50505050508152602001600182018054610eb1906130aa565b80601f0160208091040260200160405190810160405280929190818152602001828054610edd906130aa565b8015610f2a5780601f10610eff57610100808354040283529160200191610f2a565b820191906000526020600020905b815481529060010190602001808311610f0d57829003601f168201915b50505050508152602001600282018054610f43906130aa565b80601f0160208091040260200160405190810160405280929190818152602001828054610f6f906130aa565b8015610fbc5780601f10610f9157610100808354040283529160200191610fbc565b820191906000526020600020905b815481529060010190602001808311610f9f57829003601f168201915b50505050508152602001600382018054610fd5906130aa565b80601f0160208091040260200160405190810160405280929190818152602001828054611001906130aa565b801561104e5780601f106110235761010080835404028352916020019161104e565b820191906000526020600020905b81548152906001019060200180831161103157829003601f168201915b505050505081525050908060040160009054906101000a900460ff1690806005015490806006015490806007018054611086906130aa565b80601f01602080910402602001604051908101604052809291908181526020018280546110b2906130aa565b80156110ff5780601f106110d4576101008083540402835291602001916110ff565b820191906000526020600020905b8154815290600101906020018083116110e257829003601f168201915b5050505050908060080154908060090160009054906101000a900473ffffffffffffffffffffffffffffffffffffffff169080600a0160009054906101000a900473ffffffffffffffffffffffffffffffffffffffff16905088565b60606003600083815260200190815260200160002060009054906101000a900460ff166111bd576040517f08c379a00000000000000000000000000000000000000000000000000000000081526004016111b490612a2c565b60405180910390fd5b600060046000848152602001908152602001600020805480602002602001604051908101604052809291908181526020016000905b828210156112e457838290600052602060002090600402016040518060800160405290816000820160009054906101000a900473ffffffffffffffffffffffffffffffffffffffff1673ffffffffffffffffffffffffffffffffffffffff1673ffffffffffffffffffffffffffffffffffffffff1681526020016001820160009054906101000a900473ffffffffffffffffffffffffffffffffffffffff1673ffffffffffffffffffffffffffffffffffffffff1673ffffffffffffffffffffffffffffffffffffffff16815260200160028201548152602001600382015481525050815260200190600101906111f2565b50505050905080915050919050565b7f000000000000000000000000000000000000000000000000000000000000000073ffffffffffffffffffffffffffffffffffffffff163373ffffffffffffffffffffffffffffffffffffffff1614611381576040517f08c379a000000000000000000000000000000000000000000000000000000000815260040161137890613127565b60405180910390fd5b60007f000000000000000000000000000000000000000000000000000000000000000073ffffffffffffffffffffffffffffffffffffffff16476040516113c790612d6b565b60006040518083038185875af1925050503d8060008114611404576040519150601f19603f3d011682016040523d82523d6000602084013e611409565b606091505b505090508061144d576040517f08c379a000000000000000000000000000000000000000000000000000000000815260040161144490613193565b60405180910390fd5b50565b6004602052816000526040600020818154811061146c57600080fd5b9060005260206000209060040201600091509150508060000160009054906101000a900473ffffffffffffffffffffffffffffffffffffffff16908060010160009054906101000a900473ffffffffffffffffffffffffffffffffffffffff16908060020154908060030154905084565b6060600060016000546114f09190612e12565b67ffffffffffffffff811115611509576115086126d6565b5b60405190808252806020026020018201604052801561154257816020015b61152f611eb7565b8152602001906001900390816115275790505b5090506000600190505b600054811161197657600260008281526020019081526020016000206040518061010001604052908160008201604051806080016040529081600082018054611594906130aa565b80601f01602080910402602001604051908101604052809291908181526020018280546115c0906130aa565b801561160d5780601f106115e25761010080835404028352916020019161160d565b820191906000526020600020905b8154815290600101906020018083116115f057829003601f168201915b50505050508152602001600182018054611626906130aa565b80601f0160208091040260200160405190810160405280929190818152602001828054611652906130aa565b801561169f5780601f106116745761010080835404028352916020019161169f565b820191906000526020600020905b81548152906001019060200180831161168257829003601f168201915b505050505081526020016002820180546116b8906130aa565b80601f01602080910402602001604051908101604052809291908181526020018280546116e4906130aa565b80156117315780601f1061170657610100808354040283529160200191611731565b820191906000526020600020905b81548152906001019060200180831161171457829003601f168201915b5050505050815260200160038201805461174a906130aa565b80601f0160208091040260200160405190810160405280929190818152602001828054611776906130aa565b80156117c35780601f10611798576101008083540402835291602001916117c3565b820191906000526020600020905b8154815290600101906020018083116117a657829003601f168201915b50505050508152505081526020016004820160009054906101000a900460ff16151515158152602001600582015481526020016006820154815260200160078201805461180f906130aa565b80601f016020809104026020016040519081016040528092919081815260200182805461183b906130aa565b80156118885780601f1061185d57610100808354040283529160200191611888565b820191906000526020600020905b81548152906001019060200180831161186b57829003601f168201915b50505050508152602001600882015481526020016009820160009054906101000a900473ffffffffffffffffffffffffffffffffffffffff1673ffffffffffffffffffffffffffffffffffffffff1673ffffffffffffffffffffffffffffffffffffffff168152602001600a820160009054906101000a900473ffffffffffffffffffffffffffffffffffffffff1673ffffffffffffffffffffffffffffffffffffffff1673ffffffffffffffffffffffffffffffffffffffff168152505082828151811061195a576119596131b3565b5b60200260200101819052508061196f90613033565b905061154c565b508091505090565b60008290505b81836119909190612e12565b811015611c3e576000808154809291906119a990613033565b919050555060016003600083815260200190815260200160002060006101000a81548160ff02191690831515021790555060405180610100016040528060405180608001604052808d81526020018c81526020018b81526020018a81525081526020016001151581526020018781526020018281526020018681526020014281526020013373ffffffffffffffffffffffffffffffffffffffff1681526020013373ffffffffffffffffffffffffffffffffffffffff16815250600260008381526020019081526020016000206000820151816000016000820151816000019081611a94919061338e565b506020820151816001019081611aaa919061338e565b506040820151816002019081611ac0919061338e565b506060820151816003019081611ad6919061338e565b50505060208201518160040160006101000a81548160ff02191690831515021790555060408201518160050155606082015181600601556080820151816007019081611b22919061338e565b5060a0820151816008015560c08201518160090160006101000a81548173ffffffffffffffffffffffffffffffffffffffff021916908373ffffffffffffffffffffffffffffffffffffffff16021790555060e082015181600a0160006101000a81548173ffffffffffffffffffffffffffffffffffffffff021916908373ffffffffffffffffffffffffffffffffffffffff1602179055509050508373ffffffffffffffffffffffffffffffffffffffff166323b872dd3330846040518463ffffffff1660e01b8152600401611bfb93929190612ffc565b600060405180830381600087803b158015611c1557600080fd5b505af1158015611c29573d6000803e3d6000fd5b5050505080611c3790613033565b9050611984565b50505050505050505050565b60005481565b7f000000000000000000000000000000000000000000000000000000000000000081565b6003600082815260200190815260200160002060009054906101000a900460ff16611cd4576040517f08c379a0000000000000000000000000000000000000000000000000000000008152600401611ccb90612a2c565b60405180910390fd5b8273ffffffffffffffffffffffffffffffffffffffff16636352211e826040518263ffffffff1660e01b8152600401611d0d9190612061565b602060405180830381865afa158015611d2a573d6000803e3d6000fd5b505050506040513d601f19601f82011682018060405250810190611d4e9190612c08565b73ffffffffffffffffffffffffffffffffffffffff163373ffffffffffffffffffffffffffffffffffffffff1614611dbb576040517f08c379a0000000000000000000000000000000000000000000000000000000008152600401611db2906134d2565b60405180910390fd5b60006002600083815260200190815260200160002090508060040160009054906101000a900460ff1615611e24576040517f08c379a0000000000000000000000000000000000000000000000000000000008152600401611e1b90613564565b60405180910390fd5b8060050154831015611e6b576040517f08c379a0000000000000000000000000000000000000000000000000000000008152600401611e62906135f6565b60405180910390fd5b82816005018190555060018160040160006101000a81548160ff02191690831515021790555050505050565b60036020528060005260406000206000915054906101000a900460ff1681565b604051806101000160405280611ecb611f30565b815260200160001515815260200160008152602001600081526020016060815260200160008152602001600073ffffffffffffffffffffffffffffffffffffffff168152602001600073ffffffffffffffffffffffffffffffffffffffff1681525090565b6040518060800160405280606081526020016060815260200160608152602001606081525090565b6000604051905090565b600080fd5b600080fd5b600073ffffffffffffffffffffffffffffffffffffffff82169050919050565b6000611f9782611f6c565b9050919050565b6000611fa982611f8c565b9050919050565b611fb981611f9e565b8114611fc457600080fd5b50565b600081359050611fd681611fb0565b92915050565b6000819050919050565b611fef81611fdc565b8114611ffa57600080fd5b50565b60008135905061200c81611fe6565b92915050565b6000806040838503121561202957612028611f62565b5b600061203785828601611fc7565b925050602061204885828601611ffd565b9150509250929050565b61205b81611fdc565b82525050565b60006020820190506120766000830184612052565b92915050565b60006020828403121561209257612091611f62565b5b60006120a084828501611ffd565b91505092915050565b600081519050919050565b600082825260208201905092915050565b60005b838110156120e35780820151818401526020810190506120c8565b60008484015250505050565b6000601f19601f8301169050919050565b600061210b826120a9565b61211581856120b4565b93506121258185602086016120c5565b61212e816120ef565b840191505092915050565b600060808301600083015184820360008601526121568282612100565b915050602083015184820360208601526121708282612100565b9150506040830151848203604086015261218a8282612100565b915050606083015184820360608601526121a48282612100565b9150508091505092915050565b60008115159050919050565b6121c6816121b1565b82525050565b600082825260208201905092915050565b60006121e8826120a9565b6121f281856121cc565b93506122028185602086016120c5565b61220b816120ef565b840191505092915050565b61221f81611f8c565b82525050565b600061223082611f6c565b9050919050565b61224081612225565b82525050565b6000610100820190508181036000830152612261818b612139565b9050612270602083018a6121bd565b61227d6040830189612052565b61228a6060830188612052565b818103608083015261229c81876121dd565b90506122ab60a0830186612052565b6122b860c0830185612216565b6122c560e0830184612237565b9998505050505050505050565b600081519050919050565b600082825260208201905092915050565b6000819050602082019050919050565b61230781611f8c565b82525050565b61231681611fdc565b82525050565b60808201600082015161233260008501826122fe565b50602082015161234560208501826122fe565b506040820151612358604085018261230d565b50606082015161236b606085018261230d565b50505050565b600061237d838361231c565b60808301905092915050565b6000602082019050919050565b60006123a1826122d2565b6123ab81856122dd565b93506123b6836122ee565b8060005b838110156123e75781516123ce8882612371565b97506123d983612389565b9250506001810190506123ba565b5085935050505092915050565b6000602082019050818103600083015261240e8184612396565b905092915050565b6000806040838503121561242d5761242c611f62565b5b600061243b85828601611ffd565b925050602061244c85828601611ffd565b9150509250929050565b600060808201905061246b6000830187612216565b6124786020830186612216565b6124856040830185612052565b6124926060830184612052565b95945050505050565b600081519050919050565b600082825260208201905092915050565b6000819050602082019050919050565b600060808301600083015184820360008601526124e48282612100565b915050602083015184820360208601526124fe8282612100565b915050604083015184820360408601526125188282612100565b915050606083015184820360608601526125328282612100565b9150508091505092915050565b612548816121b1565b82525050565b61255781612225565b82525050565b600061010083016000830151848203600086015261257b82826124c7565b9150506020830151612590602086018261253f565b5060408301516125a3604086018261230d565b5060608301516125b6606086018261230d565b50608083015184820360808601526125ce8282612100565b91505060a08301516125e360a086018261230d565b5060c08301516125f660c08601826122fe565b5060e083015161260960e086018261254e565b508091505092915050565b6000612620838361255d565b905092915050565b6000602082019050919050565b60006126408261249b565b61264a81856124a6565b93508360208202850161265c856124b7565b8060005b8581101561269857848403895281516126798582612614565b945061268483612628565b925060208a01995050600181019050612660565b50829750879550505050505092915050565b600060208201905081810360008301526126c48184612635565b905092915050565b600080fd5b600080fd5b7f4e487b7100000000000000000000000000000000000000000000000000000000600052604160045260246000fd5b61270e826120ef565b810181811067ffffffffffffffff8211171561272d5761272c6126d6565b5b80604052505050565b6000612740611f58565b905061274c8282612705565b919050565b600067ffffffffffffffff82111561276c5761276b6126d6565b5b612775826120ef565b9050602081019050919050565b82818337600083830152505050565b60006127a461279f84612751565b612736565b9050828152602081018484840111156127c0576127bf6126d1565b5b6127cb848285612782565b509392505050565b600082601f8301126127e8576127e76126cc565b5b81356127f8848260208601612791565b91505092915050565b60008060008060008060008060006101208a8c03121561282457612823611f62565b5b60008a013567ffffffffffffffff81111561284257612841611f67565b5b61284e8c828d016127d3565b99505060208a013567ffffffffffffffff81111561286f5761286e611f67565b5b61287b8c828d016127d3565b98505060408a013567ffffffffffffffff81111561289c5761289b611f67565b5b6128a88c828d016127d3565b97505060608a013567ffffffffffffffff8111156128c9576128c8611f67565b5b6128d58c828d016127d3565b96505060806128e68c828d01611ffd565b95505060a08a013567ffffffffffffffff81111561290757612906611f67565b5b6129138c828d016127d3565b94505060c06129248c828d01611fc7565b93505060e06129358c828d01611ffd565b9250506101006129478c828d01611ffd565b9150509295985092959850929598565b600060208201905061296c6000830184612237565b92915050565b60008060006060848603121561298b5761298a611f62565b5b600061299986828701611fc7565b93505060206129aa86828701611ffd565b92505060406129bb86828701611ffd565b9150509250925092565b60006020820190506129da60008301846121bd565b92915050565b7f546f6b656e20646f6573206e6f74206578697374000000000000000000000000600082015250565b6000612a166014836121cc565b9150612a21826129e0565b602082019050919050565b60006020820190508181036000830152612a4581612a09565b9050919050565b7f596f7520616c7265616479207075726368617365642074686520746f6b656e00600082015250565b6000612a82601f836121cc565b9150612a8d82612a4c565b602082019050919050565b60006020820190508181036000830152612ab181612a75565b9050919050565b7f546f6b656e206973206e6f74206f6e2073616c652c20796f752063616e6e6f7460008201527f2070757263686173650000000000000000000000000000000000000000000000602082015250565b6000612b146029836121cc565b9150612b1f82612ab8565b604082019050919050565b60006020820190508181036000830152612b4381612b07565b9050919050565b7f4574686572206d75737420626520657175616c20746f2074686520646566696e60008201527f656420707269636520666f722074686520746f6b656e00000000000000000000602082015250565b6000612ba66036836121cc565b9150612bb182612b4a565b604082019050919050565b60006020820190508181036000830152612bd581612b99565b9050919050565b612be581611f8c565b8114612bf057600080fd5b50565b600081519050612c0281612bdc565b92915050565b600060208284031215612c1e57612c1d611f62565b5b6000612c2c84828501612bf3565b91505092915050565b7f4e487b7100000000000000000000000000000000000000000000000000000000600052601160045260246000fd5b6000612c6f82611fdc565b9150612c7a83611fdc565b9250828202612c8881611fdc565b91508282048414831517612c9f57612c9e612c35565b5b5092915050565b7f4e487b7100000000000000000000000000000000000000000000000000000000600052601260045260246000fd5b6000612ce082611fdc565b9150612ceb83611fdc565b925082612cfb57612cfa612ca6565b5b828204905092915050565b6000612d1182611fdc565b9150612d1c83611fdc565b9250828203905081811115612d3457612d33612c35565b5b92915050565b600081905092915050565b50565b6000612d55600083612d3a565b9150612d6082612d45565b600082019050919050565b6000612d7682612d48565b9150819050919050565b7f466565207472616e73616374696f6e206661696c656420746f2074686520706c60008201527f6174666f726d0000000000000000000000000000000000000000000000000000602082015250565b6000612ddc6026836121cc565b9150612de782612d80565b604082019050919050565b60006020820190508181036000830152612e0b81612dcf565b9050919050565b6000612e1d82611fdc565b9150612e2883611fdc565b9250828201905080821115612e4057612e3f612c35565b5b92915050565b7f5072696365207472616e73616374696f6e206661696c656420746f207468652060008201527f63726561746f7200000000000000000000000000000000000000000000000000602082015250565b6000612ea26027836121cc565b9150612ead82612e46565b604082019050919050565b60006020820190508181036000830152612ed181612e95565b9050919050565b7f526f79616c7479207472616e73616374696f6e206661696c656420746f20746860008201527f652063726561746f720000000000000000000000000000000000000000000000602082015250565b6000612f346029836121cc565b9150612f3f82612ed8565b604082019050919050565b60006020820190508181036000830152612f6381612f27565b9050919050565b7f5072696365207472616e73616374696f6e206661696c656420746f207468652060008201527f6f776e6572000000000000000000000000000000000000000000000000000000602082015250565b6000612fc66025836121cc565b9150612fd182612f6a565b604082019050919050565b60006020820190508181036000830152612ff581612fb9565b9050919050565b60006060820190506130116000830186612216565b61301e6020830185612216565b61302b6040830184612052565b949350505050565b600061303e82611fdc565b91507fffffffffffffffffffffffffffffffffffffffffffffffffffffffffffffffff82036130705761306f612c35565b5b600182019050919050565b7f4e487b7100000000000000000000000000000000000000000000000000000000600052602260045260246000fd5b600060028204905060018216806130c257607f821691505b6020821081036130d5576130d461307b565b5b50919050565b7f596f7520617265206e6f7420746865206f776e65722f6465706c6f7965720000600082015250565b6000613111601e836121cc565b915061311c826130db565b602082019050919050565b6000602082019050818103600083015261314081613104565b9050919050565b7f5769746864726177206661696c65640000000000000000000000000000000000600082015250565b600061317d600f836121cc565b915061318882613147565b602082019050919050565b600060208201905081810360008301526131ac81613170565b9050919050565b7f4e487b7100000000000000000000000000000000000000000000000000000000600052603260045260246000fd5b60008190508160005260206000209050919050565b60006020601f8301049050919050565b600082821b905092915050565b6000600883026132447fffffffffffffffffffffffffffffffffffffffffffffffffffffffffffffffff82613207565b61324e8683613207565b95508019841693508086168417925050509392505050565b6000819050919050565b600061328b61328661328184611fdc565b613266565b611fdc565b9050919050565b6000819050919050565b6132a583613270565b6132b96132b182613292565b848454613214565b825550505050565b600090565b6132ce6132c1565b6132d981848461329c565b505050565b5b818110156132fd576132f26000826132c6565b6001810190506132df565b5050565b601f82111561334257613313816131e2565b61331c846131f7565b8101602085101561332b578190505b61333f613337856131f7565b8301826132de565b50505b505050565b600082821c905092915050565b600061336560001984600802613347565b1980831691505092915050565b600061337e8383613354565b9150826002028217905092915050565b613397826120a9565b67ffffffffffffffff8111156133b0576133af6126d6565b5b6133ba82546130aa565b6133c5828285613301565b600060209050601f8311600181146133f857600084156133e6578287015190505b6133f08582613372565b865550613458565b601f198416613406866131e2565b60005b8281101561342e57848901518255600182019150602085019450602081019050613409565b8683101561344b5784890151613447601f891682613354565b8355505b6001600288020188555050505b505050505050565b7f596f7520617265206e6f7420746865206f776e6572206f66207468697320746f60008201527f6b656e0000000000000000000000000000000000000000000000000000000000602082015250565b60006134bc6023836121cc565b91506134c782613460565b604082019050919050565b600060208201905081810360008301526134eb816134af565b9050919050565b7f546f6b656e20697320616c7265616479206f6e2073616c652c2063616e6e6f7460008201527f206c69737420666f722073616c65000000000000000000000000000000000000602082015250565b600061354e602e836121cc565b9150613559826134f2565b604082019050919050565b6000602082019050818103600083015261357d81613541565b9050919050565b7f4e6577207072696365206d75737420626520657175616c206f7220686967686560008201527f72207468616e20746865206f6c64207072696365000000000000000000000000602082015250565b60006135e06034836121cc565b91506135eb82613584565b604082019050919050565b6000602082019050818103600083015261360f816135d3565b905091905056fea2646970667358221220cca7a2b25e74ffcb59361aeb75136442dc17c83d831d5be4d55fadf50564dbdc64736f6c63430008140033",
  "linkReferences": {},
  "deployedLinkReferences": {}
}