{
  "_format": "hh-sol-artifact-1",
  "contractName": "Business",
  "sourceName": "contracts/Business.sol",
  "abi": [
    {
      "inputs": [],
      "stateMutability": "nonpayable",
      "type": "constructor"
    },
    {
      "inputs": [],
      "name": "fetchAllTokens",
      "outputs": [
        {
          "internalType": "uint256",
          "name": "",
          "type": "uint256"
        },
        {
          "components": [
            {
              "components": [
                {
                  "internalType": "string",
                  "name": "name",
                  "type": "string"
                },
                {
                  "internalType": "string",
                  "name": "artist",
                  "type": "string"
                },
                {
                  "internalType": "string",
                  "name": "imageURL",
                  "type": "string"
                }
              ],
              "internalType": "struct Business.Song",
              "name": "song",
              "type": "tuple"
            },
            {
              "internalType": "uint256",
              "name": "price",
              "type": "uint256"
            },
            {
              "internalType": "uint256",
              "name": "tokenId",
              "type": "uint256"
            },
            {
              "internalType": "string",
              "name": "tokenURI",
              "type": "string"
            },
            {
              "internalType": "uint256",
              "name": "dateOfMint",
              "type": "uint256"
            },
            {
              "internalType": "address payable",
              "name": "creator",
              "type": "address"
            },
            {
              "internalType": "uint256",
              "name": "sellStartTimestamp",
              "type": "uint256"
            },
            {
              "internalType": "uint256",
              "name": "sellEndTimestamp",
              "type": "uint256"
            }
          ],
          "internalType": "struct Business.Token[]",
          "name": "",
          "type": "tuple[]"
        }
      ],
      "stateMutability": "view",
      "type": "function"
    },
    {
      "inputs": [],
      "name": "fetchAllTokensBySellNotStarted",
      "outputs": [
        {
          "internalType": "uint256",
          "name": "",
          "type": "uint256"
        },
        {
          "components": [
            {
              "components": [
                {
                  "internalType": "string",
                  "name": "name",
                  "type": "string"
                },
                {
                  "internalType": "string",
                  "name": "artist",
                  "type": "string"
                },
                {
                  "internalType": "string",
                  "name": "imageURL",
                  "type": "string"
                }
              ],
              "internalType": "struct Business.Song",
              "name": "song",
              "type": "tuple"
            },
            {
              "internalType": "uint256",
              "name": "price",
              "type": "uint256"
            },
            {
              "internalType": "uint256",
              "name": "tokenId",
              "type": "uint256"
            },
            {
              "internalType": "string",
              "name": "tokenURI",
              "type": "string"
            },
            {
              "internalType": "uint256",
              "name": "dateOfMint",
              "type": "uint256"
            },
            {
              "internalType": "address payable",
              "name": "creator",
              "type": "address"
            },
            {
              "internalType": "uint256",
              "name": "sellStartTimestamp",
              "type": "uint256"
            },
            {
              "internalType": "uint256",
              "name": "sellEndTimestamp",
              "type": "uint256"
            }
          ],
          "internalType": "struct Business.Token[]",
          "name": "",
          "type": "tuple[]"
        }
      ],
      "stateMutability": "view",
      "type": "function"
    },
    {
      "inputs": [],
      "name": "fetchAllTokensBySellStarted",
      "outputs": [
        {
          "internalType": "uint256",
          "name": "",
          "type": "uint256"
        },
        {
          "components": [
            {
              "components": [
                {
                  "internalType": "string",
                  "name": "name",
                  "type": "string"
                },
                {
                  "internalType": "string",
                  "name": "artist",
                  "type": "string"
                },
                {
                  "internalType": "string",
                  "name": "imageURL",
                  "type": "string"
                }
              ],
              "internalType": "struct Business.Song",
              "name": "song",
              "type": "tuple"
            },
            {
              "internalType": "uint256",
              "name": "price",
              "type": "uint256"
            },
            {
              "internalType": "uint256",
              "name": "tokenId",
              "type": "uint256"
            },
            {
              "internalType": "string",
              "name": "tokenURI",
              "type": "string"
            },
            {
              "internalType": "uint256",
              "name": "dateOfMint",
              "type": "uint256"
            },
            {
              "internalType": "address payable",
              "name": "creator",
              "type": "address"
            },
            {
              "internalType": "uint256",
              "name": "sellStartTimestamp",
              "type": "uint256"
            },
            {
              "internalType": "uint256",
              "name": "sellEndTimestamp",
              "type": "uint256"
            }
          ],
          "internalType": "struct Business.Token[]",
          "name": "",
          "type": "tuple[]"
        }
      ],
      "stateMutability": "view",
      "type": "function"
    },
    {
      "inputs": [
        {
          "internalType": "contract IERC721",
          "name": "_nft",
          "type": "address"
        },
        {
          "internalType": "uint256",
          "name": "_tokenId",
          "type": "uint256"
        }
      ],
      "name": "purchaseToken",
      "outputs": [],
      "stateMutability": "payable",
      "type": "function"
    },
    {
      "inputs": [],
      "name": "royaltyPercentage",
      "outputs": [
        {
          "internalType": "uint256",
          "name": "",
          "type": "uint256"
        }
      ],
      "stateMutability": "view",
      "type": "function"
    },
    {
      "inputs": [
        {
          "internalType": "string",
          "name": "_name",
          "type": "string"
        },
        {
          "internalType": "string",
          "name": "_artist",
          "type": "string"
        },
        {
          "internalType": "string",
          "name": "_imageURL",
          "type": "string"
        },
        {
          "internalType": "uint256",
          "name": "_price",
          "type": "uint256"
        },
        {
          "internalType": "string",
          "name": "_tokenURI",
          "type": "string"
        },
        {
          "internalType": "uint256",
          "name": "_sellStartTimestamp",
          "type": "uint256"
        },
        {
          "internalType": "uint256",
          "name": "_sellEndTimestamp",
          "type": "uint256"
        },
        {
          "internalType": "contract IERC721",
          "name": "_nft",
          "type": "address"
        },
        {
          "internalType": "uint256",
          "name": "_initialEdition",
          "type": "uint256"
        },
        {
          "internalType": "uint256",
          "name": "_numberOfEditions",
          "type": "uint256"
        }
      ],
      "name": "saveAndTransferTokensToBusinessContract",
      "outputs": [],
      "stateMutability": "nonpayable",
      "type": "function"
    },
    {
      "inputs": [
        {
          "internalType": "uint256",
          "name": "",
          "type": "uint256"
        }
      ],
      "name": "tokens",
      "outputs": [
        {
          "components": [
            {
              "internalType": "string",
              "name": "name",
              "type": "string"
            },
            {
              "internalType": "string",
              "name": "artist",
              "type": "string"
            },
            {
              "internalType": "string",
              "name": "imageURL",
              "type": "string"
            }
          ],
          "internalType": "struct Business.Song",
          "name": "song",
          "type": "tuple"
        },
        {
          "internalType": "uint256",
          "name": "price",
          "type": "uint256"
        },
        {
          "internalType": "uint256",
          "name": "tokenId",
          "type": "uint256"
        },
        {
          "internalType": "string",
          "name": "tokenURI",
          "type": "string"
        },
        {
          "internalType": "uint256",
          "name": "dateOfMint",
          "type": "uint256"
        },
        {
          "internalType": "address payable",
          "name": "creator",
          "type": "address"
        },
        {
          "internalType": "uint256",
          "name": "sellStartTimestamp",
          "type": "uint256"
        },
        {
          "internalType": "uint256",
          "name": "sellEndTimestamp",
          "type": "uint256"
        }
      ],
      "stateMutability": "view",
      "type": "function"
    },
    {
      "inputs": [
        {
          "internalType": "uint256",
          "name": "",
          "type": "uint256"
        }
      ],
      "name": "tokensExistence",
      "outputs": [
        {
          "internalType": "bool",
          "name": "",
          "type": "bool"
        }
      ],
      "stateMutability": "view",
      "type": "function"
    }
  ],
  "bytecode": "0x608060405234801561001057600080fd5b50612c1a806100206000396000f3fe60806040526004361061007b5760003560e01c80634614c0b71161004e5780634614c0b71461011d5780634f64b2be1461015a5780638a71bb2d1461019e578063f7d231ef146101c95761007b565b806316ebb749146100805780631794ba1d146100ac5780631cc2c911146100d55780632528b676146100f1575b600080fd5b34801561008c57600080fd5b506100956101f5565b6040516100a3929190611dec565b60405180910390f35b3480156100b857600080fd5b506100d360048036038101906100ce9190611fe1565b6105f2565b005b6100ef60048036038101906100ea9190612130565b610957565b005b3480156100fd57600080fd5b50610106611076565b604051610114929190611dec565b60405180910390f35b34801561012957600080fd5b50610144600480360381019061013f9190612170565b6113c8565b60405161015191906121b8565b60405180910390f35b34801561016657600080fd5b50610181600480360381019061017c9190612170565b6113e8565b60405161019598979695949392919061228a565b60405180910390f35b3480156101aa57600080fd5b506101b3611698565b6040516101c09190612316565b60405180910390f35b3480156101d557600080fd5b506101de61169d565b6040516101ec929190611dec565b60405180910390f35b60006060600080808054905067ffffffffffffffff81111561021a57610219611e3a565b5b60405190808252806020026020018201604052801561025357816020015b610240611a9a565b8152602001906001900390816102385790505b50905060005b6000805490508110156105e557426000828154811061027b5761027a612331565b5b90600052602060002090600a02016008015410156105d257828061029e9061238f565b935050600081815481106102b5576102b4612331565b5b90600052602060002090600a020160405180610100016040529081600082016040518060600160405290816000820180546102ef90612406565b80601f016020809104026020016040519081016040528092919081815260200182805461031b90612406565b80156103685780601f1061033d57610100808354040283529160200191610368565b820191906000526020600020905b81548152906001019060200180831161034b57829003601f168201915b5050505050815260200160018201805461038190612406565b80601f01602080910402602001604051908101604052809291908181526020018280546103ad90612406565b80156103fa5780601f106103cf576101008083540402835291602001916103fa565b820191906000526020600020905b8154815290600101906020018083116103dd57829003601f168201915b5050505050815260200160028201805461041390612406565b80601f016020809104026020016040519081016040528092919081815260200182805461043f90612406565b801561048c5780601f106104615761010080835404028352916020019161048c565b820191906000526020600020905b81548152906001019060200180831161046f57829003601f168201915b505050505081525050815260200160038201548152602001600482015481526020016005820180546104bd90612406565b80601f01602080910402602001604051908101604052809291908181526020018280546104e990612406565b80156105365780601f1061050b57610100808354040283529160200191610536565b820191906000526020600020905b81548152906001019060200180831161051957829003601f168201915b50505050508152602001600682015481526020016007820160009054906101000a900473ffffffffffffffffffffffffffffffffffffffff1673ffffffffffffffffffffffffffffffffffffffff1673ffffffffffffffffffffffffffffffffffffffff168152602001600882015481526020016009820154815250508282815181106105c6576105c5612331565b5b60200260200101819052505b80806105dd9061238f565b915050610259565b5081819350935050509091565b60008290505b81836106049190612437565b81101561094a5760405180610100016040528060405180606001604052808e81526020018d81526020018c81525081526020018981526020018281526020018881526020014281526020013373ffffffffffffffffffffffffffffffffffffffff168152602001878152602001868152506001600083815260200190815260200160002060008201518160000160008201518160000190816106a69190612617565b5060208201518160010190816106bc9190612617565b5060408201518160020190816106d29190612617565b505050602082015181600301556040820151816004015560608201518160050190816106fe9190612617565b506080820151816006015560a08201518160070160006101000a81548173ffffffffffffffffffffffffffffffffffffffff021916908373ffffffffffffffffffffffffffffffffffffffff16021790555060c0820151816008015560e0820151816009015590505060006001600083815260200190815260200160002090806001815401808255809150506001900390600052602060002090600a02016000909190919091506000820181600001600082018160000190816107c191906126ff565b50600182018160010190816107d691906126ff565b50600282018160020190816107eb91906126ff565b50505060038201548160030155600482015481600401556005820181600501908161081691906126ff565b50600682015481600601556007820160009054906101000a900473ffffffffffffffffffffffffffffffffffffffff168160070160006101000a81548173ffffffffffffffffffffffffffffffffffffffff021916908373ffffffffffffffffffffffffffffffffffffffff1602179055506008820154816008015560098201548160090155505060016002600083815260200190815260200160002060006101000a81548160ff0219169083151502179055508373ffffffffffffffffffffffffffffffffffffffff166323b872dd3330846040518463ffffffff1660e01b8152600401610907939291906127f6565b600060405180830381600087803b15801561092157600080fd5b505af1158015610935573d6000803e3d6000fd5b50505050806109439061238f565b90506105f8565b5050505050505050505050565b6002600082815260200190815260200160002060009054906101000a900460ff166109b7576040517f08c379a00000000000000000000000000000000000000000000000000000000081526004016109ae90612879565b60405180910390fd5b60006001600083815260200190815260200160002060405180610100016040529081600082016040518060600160405290816000820180546109f890612406565b80601f0160208091040260200160405190810160405280929190818152602001828054610a2490612406565b8015610a715780601f10610a4657610100808354040283529160200191610a71565b820191906000526020600020905b815481529060010190602001808311610a5457829003601f168201915b50505050508152602001600182018054610a8a90612406565b80601f0160208091040260200160405190810160405280929190818152602001828054610ab690612406565b8015610b035780601f10610ad857610100808354040283529160200191610b03565b820191906000526020600020905b815481529060010190602001808311610ae657829003601f168201915b50505050508152602001600282018054610b1c90612406565b80601f0160208091040260200160405190810160405280929190818152602001828054610b4890612406565b8015610b955780601f10610b6a57610100808354040283529160200191610b95565b820191906000526020600020905b815481529060010190602001808311610b7857829003601f168201915b50505050508152505081526020016003820154815260200160048201548152602001600582018054610bc690612406565b80601f0160208091040260200160405190810160405280929190818152602001828054610bf290612406565b8015610c3f5780601f10610c1457610100808354040283529160200191610c3f565b820191906000526020600020905b815481529060010190602001808311610c2257829003601f168201915b50505050508152602001600682015481526020016007820160009054906101000a900473ffffffffffffffffffffffffffffffffffffffff1673ffffffffffffffffffffffffffffffffffffffff1673ffffffffffffffffffffffffffffffffffffffff16815260200160088201548152602001600982015481525050905080602001513414610d04576040517f08c379a0000000000000000000000000000000000000000000000000000000008152600401610cfb9061290b565b60405180910390fd5b60008373ffffffffffffffffffffffffffffffffffffffff16636352211e83604001516040518263ffffffff1660e01b8152600401610d439190612316565b602060405180830381865afa158015610d60573d6000803e3d6000fd5b505050506040513d601f19601f82011682018060405250810190610d849190612957565b90503073ffffffffffffffffffffffffffffffffffffffff168173ffffffffffffffffffffffffffffffffffffffff1603610e6f5760008260a0015173ffffffffffffffffffffffffffffffffffffffff1634604051610de3906129b5565b60006040518083038185875af1925050503d8060008114610e20576040519150601f19603f3d011682016040523d82523d6000602084013e610e25565b606091505b5050905080610e69576040517f08c379a0000000000000000000000000000000000000000000000000000000008152600401610e6090612a16565b60405180910390fd5b50610ffd565b60006064600f34610e809190612a36565b610e8a9190612aa7565b905060008134610e9a9190612ad8565b905060008460a0015173ffffffffffffffffffffffffffffffffffffffff1683604051610ec6906129b5565b60006040518083038185875af1925050503d8060008114610f03576040519150601f19603f3d011682016040523d82523d6000602084013e610f08565b606091505b5050905080610f4c576040517f08c379a0000000000000000000000000000000000000000000000000000000008152600401610f4390612b58565b60405180910390fd5b60008473ffffffffffffffffffffffffffffffffffffffff1683604051610f72906129b5565b60006040518083038185875af1925050503d8060008114610faf576040519150601f19603f3d011682016040523d82523d6000602084013e610fb4565b606091505b5050905080610ff8576040517f08c379a0000000000000000000000000000000000000000000000000000000008152600401610fef90612bc4565b60405180910390fd5b505050505b8373ffffffffffffffffffffffffffffffffffffffff166323b872dd823385604001516040518463ffffffff1660e01b815260040161103e939291906127f6565b600060405180830381600087803b15801561105857600080fd5b505af115801561106c573d6000803e3d6000fd5b5050505050505050565b60006060600080549050600080805480602002602001604051908101604052809291908181526020016000905b828210156113ba57838290600052602060002090600a020160405180610100016040529081600082016040518060600160405290816000820180546110e790612406565b80601f016020809104026020016040519081016040528092919081815260200182805461111390612406565b80156111605780601f1061113557610100808354040283529160200191611160565b820191906000526020600020905b81548152906001019060200180831161114357829003601f168201915b5050505050815260200160018201805461117990612406565b80601f01602080910402602001604051908101604052809291908181526020018280546111a590612406565b80156111f25780601f106111c7576101008083540402835291602001916111f2565b820191906000526020600020905b8154815290600101906020018083116111d557829003601f168201915b5050505050815260200160028201805461120b90612406565b80601f016020809104026020016040519081016040528092919081815260200182805461123790612406565b80156112845780601f1061125957610100808354040283529160200191611284565b820191906000526020600020905b81548152906001019060200180831161126757829003601f168201915b505050505081525050815260200160038201548152602001600482015481526020016005820180546112b590612406565b80601f01602080910402602001604051908101604052809291908181526020018280546112e190612406565b801561132e5780601f106113035761010080835404028352916020019161132e565b820191906000526020600020905b81548152906001019060200180831161131157829003601f168201915b50505050508152602001600682015481526020016007820160009054906101000a900473ffffffffffffffffffffffffffffffffffffffff1673ffffffffffffffffffffffffffffffffffffffff1673ffffffffffffffffffffffffffffffffffffffff16815260200160088201548152602001600982015481525050815260200190600101906110a3565b505050509050915091509091565b60026020528060005260406000206000915054906101000a900460ff1681565b60016020528060005260406000206000915090508060000160405180606001604052908160008201805461141b90612406565b80601f016020809104026020016040519081016040528092919081815260200182805461144790612406565b80156114945780601f1061146957610100808354040283529160200191611494565b820191906000526020600020905b81548152906001019060200180831161147757829003601f168201915b505050505081526020016001820180546114ad90612406565b80601f01602080910402602001604051908101604052809291908181526020018280546114d990612406565b80156115265780601f106114fb57610100808354040283529160200191611526565b820191906000526020600020905b81548152906001019060200180831161150957829003601f168201915b5050505050815260200160028201805461153f90612406565b80601f016020809104026020016040519081016040528092919081815260200182805461156b90612406565b80156115b85780601f1061158d576101008083540402835291602001916115b8565b820191906000526020600020905b81548152906001019060200180831161159b57829003601f168201915b505050505081525050908060030154908060040154908060050180546115dd90612406565b80601f016020809104026020016040519081016040528092919081815260200182805461160990612406565b80156116565780601f1061162b57610100808354040283529160200191611656565b820191906000526020600020905b81548152906001019060200180831161163957829003601f168201915b5050505050908060060154908060070160009054906101000a900473ffffffffffffffffffffffffffffffffffffffff16908060080154908060090154905088565b600f81565b60006060600080808054905067ffffffffffffffff8111156116c2576116c1611e3a565b5b6040519080825280602002602001820160405280156116fb57816020015b6116e8611a9a565b8152602001906001900390816116e05790505b50905060005b600080549050811015611a8d57426000828154811061172357611722612331565b5b90600052602060002090600a0201600801541115611a7a5782806117469061238f565b9350506000818154811061175d5761175c612331565b5b90600052602060002090600a0201604051806101000160405290816000820160405180606001604052908160008201805461179790612406565b80601f01602080910402602001604051908101604052809291908181526020018280546117c390612406565b80156118105780601f106117e557610100808354040283529160200191611810565b820191906000526020600020905b8154815290600101906020018083116117f357829003601f168201915b5050505050815260200160018201805461182990612406565b80601f016020809104026020016040519081016040528092919081815260200182805461185590612406565b80156118a25780601f10611877576101008083540402835291602001916118a2565b820191906000526020600020905b81548152906001019060200180831161188557829003601f168201915b505050505081526020016002820180546118bb90612406565b80601f01602080910402602001604051908101604052809291908181526020018280546118e790612406565b80156119345780601f1061190957610100808354040283529160200191611934565b820191906000526020600020905b81548152906001019060200180831161191757829003601f168201915b5050505050815250508152602001600382015481526020016004820154815260200160058201805461196590612406565b80601f016020809104026020016040519081016040528092919081815260200182805461199190612406565b80156119de5780601f106119b3576101008083540402835291602001916119de565b820191906000526020600020905b8154815290600101906020018083116119c157829003601f168201915b50505050508152602001600682015481526020016007820160009054906101000a900473ffffffffffffffffffffffffffffffffffffffff1673ffffffffffffffffffffffffffffffffffffffff1673ffffffffffffffffffffffffffffffffffffffff16815260200160088201548152602001600982015481525050828281518110611a6e57611a6d612331565b5b60200260200101819052505b8080611a859061238f565b915050611701565b5081819350935050509091565b604051806101000160405280611aae611afb565b815260200160008152602001600081526020016060815260200160008152602001600073ffffffffffffffffffffffffffffffffffffffff16815260200160008152602001600081525090565b60405180606001604052806060815260200160608152602001606081525090565b6000819050919050565b611b2f81611b1c565b82525050565b600081519050919050565b600082825260208201905092915050565b6000819050602082019050919050565b600081519050919050565b600082825260208201905092915050565b60005b83811015611b9b578082015181840152602081019050611b80565b60008484015250505050565b6000601f19601f8301169050919050565b6000611bc382611b61565b611bcd8185611b6c565b9350611bdd818560208601611b7d565b611be681611ba7565b840191505092915050565b60006060830160008301518482036000860152611c0e8282611bb8565b91505060208301518482036020860152611c288282611bb8565b91505060408301518482036040860152611c428282611bb8565b9150508091505092915050565b611c5881611b1c565b82525050565b600073ffffffffffffffffffffffffffffffffffffffff82169050919050565b6000611c8982611c5e565b9050919050565b611c9981611c7e565b82525050565b6000610100830160008301518482036000860152611cbd8282611bf1565b9150506020830151611cd26020860182611c4f565b506040830151611ce56040860182611c4f565b5060608301518482036060860152611cfd8282611bb8565b9150506080830151611d126080860182611c4f565b5060a0830151611d2560a0860182611c90565b5060c0830151611d3860c0860182611c4f565b5060e0830151611d4b60e0860182611c4f565b508091505092915050565b6000611d628383611c9f565b905092915050565b6000602082019050919050565b6000611d8282611b35565b611d8c8185611b40565b935083602082028501611d9e85611b51565b8060005b85811015611dda5784840389528151611dbb8582611d56565b9450611dc683611d6a565b925060208a01995050600181019050611da2565b50829750879550505050505092915050565b6000604082019050611e016000830185611b26565b8181036020830152611e138184611d77565b90509392505050565b6000604051905090565b600080fd5b600080fd5b600080fd5b600080fd5b7f4e487b7100000000000000000000000000000000000000000000000000000000600052604160045260246000fd5b611e7282611ba7565b810181811067ffffffffffffffff82111715611e9157611e90611e3a565b5b80604052505050565b6000611ea4611e1c565b9050611eb08282611e69565b919050565b600067ffffffffffffffff821115611ed057611ecf611e3a565b5b611ed982611ba7565b9050602081019050919050565b82818337600083830152505050565b6000611f08611f0384611eb5565b611e9a565b905082815260208101848484011115611f2457611f23611e35565b5b611f2f848285611ee6565b509392505050565b600082601f830112611f4c57611f4b611e30565b5b8135611f5c848260208601611ef5565b91505092915050565b611f6e81611b1c565b8114611f7957600080fd5b50565b600081359050611f8b81611f65565b92915050565b6000611f9c82611c5e565b9050919050565b6000611fae82611f91565b9050919050565b611fbe81611fa3565b8114611fc957600080fd5b50565b600081359050611fdb81611fb5565b92915050565b6000806000806000806000806000806101408b8d03121561200557612004611e26565b5b60008b013567ffffffffffffffff81111561202357612022611e2b565b5b61202f8d828e01611f37565b9a505060208b013567ffffffffffffffff8111156120505761204f611e2b565b5b61205c8d828e01611f37565b99505060408b013567ffffffffffffffff81111561207d5761207c611e2b565b5b6120898d828e01611f37565b985050606061209a8d828e01611f7c565b97505060808b013567ffffffffffffffff8111156120bb576120ba611e2b565b5b6120c78d828e01611f37565b96505060a06120d88d828e01611f7c565b95505060c06120e98d828e01611f7c565b94505060e06120fa8d828e01611fcc565b93505061010061210c8d828e01611f7c565b92505061012061211e8d828e01611f7c565b9150509295989b9194979a5092959850565b6000806040838503121561214757612146611e26565b5b600061215585828601611fcc565b925050602061216685828601611f7c565b9150509250929050565b60006020828403121561218657612185611e26565b5b600061219484828501611f7c565b91505092915050565b60008115159050919050565b6121b28161219d565b82525050565b60006020820190506121cd60008301846121a9565b92915050565b600060608301600083015184820360008601526121f08282611bb8565b9150506020830151848203602086015261220a8282611bb8565b915050604083015184820360408601526122248282611bb8565b9150508091505092915050565b600082825260208201905092915050565b600061224d82611b61565b6122578185612231565b9350612267818560208601611b7d565b61227081611ba7565b840191505092915050565b61228481611c7e565b82525050565b60006101008201905081810360008301526122a5818b6121d3565b90506122b4602083018a611b26565b6122c16040830189611b26565b81810360608301526122d38188612242565b90506122e26080830187611b26565b6122ef60a083018661227b565b6122fc60c0830185611b26565b61230960e0830184611b26565b9998505050505050505050565b600060208201905061232b6000830184611b26565b92915050565b7f4e487b7100000000000000000000000000000000000000000000000000000000600052603260045260246000fd5b7f4e487b7100000000000000000000000000000000000000000000000000000000600052601160045260246000fd5b600061239a82611b1c565b91507fffffffffffffffffffffffffffffffffffffffffffffffffffffffffffffffff82036123cc576123cb612360565b5b600182019050919050565b7f4e487b7100000000000000000000000000000000000000000000000000000000600052602260045260246000fd5b6000600282049050600182168061241e57607f821691505b602082108103612431576124306123d7565b5b50919050565b600061244282611b1c565b915061244d83611b1c565b925082820190508082111561246557612464612360565b5b92915050565b60008190508160005260206000209050919050565b60006020601f8301049050919050565b600082821b905092915050565b6000600883026124cd7fffffffffffffffffffffffffffffffffffffffffffffffffffffffffffffffff82612490565b6124d78683612490565b95508019841693508086168417925050509392505050565b6000819050919050565b600061251461250f61250a84611b1c565b6124ef565b611b1c565b9050919050565b6000819050919050565b61252e836124f9565b61254261253a8261251b565b84845461249d565b825550505050565b600090565b61255761254a565b612562818484612525565b505050565b5b818110156125865761257b60008261254f565b600181019050612568565b5050565b601f8211156125cb5761259c8161246b565b6125a584612480565b810160208510156125b4578190505b6125c86125c085612480565b830182612567565b50505b505050565b600082821c905092915050565b60006125ee600019846008026125d0565b1980831691505092915050565b600061260783836125dd565b9150826002028217905092915050565b61262082611b61565b67ffffffffffffffff81111561263957612638611e3a565b5b6126438254612406565b61264e82828561258a565b600060209050601f831160018114612681576000841561266f578287015190505b61267985826125fb565b8655506126e1565b601f19841661268f8661246b565b60005b828110156126b757848901518255600182019150602085019450602081019050612692565b868310156126d457848901516126d0601f8916826125dd565b8355505b6001600288020188555050505b505050505050565b6000815490506126f881612406565b9050919050565b81810361270d5750506127e5565b612716826126e9565b67ffffffffffffffff81111561272f5761272e611e3a565b5b6127398254612406565b61274482828561258a565b6000601f8311600181146127735760008415612761578287015490505b61276b85826125fb565b8655506127de565b601f1984166127818761246b565b965061278c8661246b565b60005b828110156127b45784890154825560018201915060018501945060208101905061278f565b868310156127d157848901546127cd601f8916826125dd565b8355505b6001600288020188555050505b5050505050505b565b6127f081611f91565b82525050565b600060608201905061280b60008301866127e7565b61281860208301856127e7565b6128256040830184611b26565b949350505050565b7f546f6b656e20646f65736e277420657869737400000000000000000000000000600082015250565b6000612863601383612231565b915061286e8261282d565b602082019050919050565b6000602082019050818103600083015261289281612856565b9050919050565b7f546f74616c206574686572206d75737420626520657175616c20746f2070726960008201527f6365206f662074686520746f6b656e0000000000000000000000000000000000602082015250565b60006128f5602f83612231565b915061290082612899565b604082019050919050565b60006020820190508181036000830152612924816128e8565b9050919050565b61293481611f91565b811461293f57600080fd5b50565b6000815190506129518161292b565b92915050565b60006020828403121561296d5761296c611e26565b5b600061297b84828501612942565b91505092915050565b600081905092915050565b50565b600061299f600083612984565b91506129aa8261298f565b600082019050919050565b60006129c082612992565b9150819050919050565b7f5472616e73616374696f6e206661696c65640000000000000000000000000000600082015250565b6000612a00601283612231565b9150612a0b826129ca565b602082019050919050565b60006020820190508181036000830152612a2f816129f3565b9050919050565b6000612a4182611b1c565b9150612a4c83611b1c565b9250828202612a5a81611b1c565b91508282048414831517612a7157612a70612360565b5b5092915050565b7f4e487b7100000000000000000000000000000000000000000000000000000000600052601260045260246000fd5b6000612ab282611b1c565b9150612abd83611b1c565b925082612acd57612acc612a78565b5b828204905092915050565b6000612ae382611b1c565b9150612aee83611b1c565b9250828203905081811115612b0657612b05612360565b5b92915050565b7f5472616e73616374696f6e20746f2063726561746f72206661696c6564000000600082015250565b6000612b42601d83612231565b9150612b4d82612b0c565b602082019050919050565b60006020820190508181036000830152612b7181612b35565b9050919050565b7f5472616e73616374696f6e20746f206f776e6572206661696c65640000000000600082015250565b6000612bae601b83612231565b9150612bb982612b78565b602082019050919050565b60006020820190508181036000830152612bdd81612ba1565b905091905056fea2646970667358221220ae64ce7e8d6cbd754f35615de71ef2f593ed1ff30ba4e7d68ffb7103bba7417264736f6c63430008140033",
  "linkReferences": {},
  "deployedLinkReferences": {}
}