{
  "_format": "hh-sol-artifact-1",
  "contractName": "Business",
  "sourceName": "contracts/Business.sol",
  "abi": [
    {
      "inputs": [],
      "stateMutability": "nonpayable",
      "type": "constructor"
    },
    {
      "inputs": [
        {
          "internalType": "contract IERC721",
          "name": "_nft",
          "type": "address"
        },
        {
          "internalType": "uint256",
          "name": "_tokenId",
          "type": "uint256"
        }
      ],
      "name": "purchaseToken",
      "outputs": [],
      "stateMutability": "payable",
      "type": "function"
    },
    {
      "inputs": [],
      "name": "royaltyPercentage",
      "outputs": [
        {
          "internalType": "uint256",
          "name": "",
          "type": "uint256"
        }
      ],
      "stateMutability": "view",
      "type": "function"
    },
    {
      "inputs": [
        {
          "internalType": "uint256",
          "name": "_price",
          "type": "uint256"
        },
        {
          "internalType": "string",
          "name": "_tokenURI",
          "type": "string"
        },
        {
          "internalType": "uint256",
          "name": "_sellStartTimestamp",
          "type": "uint256"
        },
        {
          "internalType": "uint256",
          "name": "_sellEndTimestamp",
          "type": "uint256"
        },
        {
          "internalType": "contract IERC721",
          "name": "_nft",
          "type": "address"
        },
        {
          "internalType": "uint256",
          "name": "_initialEdition",
          "type": "uint256"
        },
        {
          "internalType": "uint256",
          "name": "_numberOfEditions",
          "type": "uint256"
        }
      ],
      "name": "saveAndTransferTokensToBusinessContract",
      "outputs": [],
      "stateMutability": "nonpayable",
      "type": "function"
    },
    {
      "inputs": [
        {
          "internalType": "uint256",
          "name": "",
          "type": "uint256"
        }
      ],
      "name": "tokens",
      "outputs": [
        {
          "internalType": "uint256",
          "name": "price",
          "type": "uint256"
        },
        {
          "internalType": "uint256",
          "name": "tokenId",
          "type": "uint256"
        },
        {
          "internalType": "string",
          "name": "tokenURI",
          "type": "string"
        },
        {
          "internalType": "uint256",
          "name": "dateOfMint",
          "type": "uint256"
        },
        {
          "internalType": "address payable",
          "name": "creator",
          "type": "address"
        },
        {
          "internalType": "uint256",
          "name": "sellStartTimestamp",
          "type": "uint256"
        },
        {
          "internalType": "uint256",
          "name": "sellEndTimestamp",
          "type": "uint256"
        }
      ],
      "stateMutability": "view",
      "type": "function"
    },
    {
      "inputs": [
        {
          "internalType": "uint256",
          "name": "",
          "type": "uint256"
        }
      ],
      "name": "tokensExistence",
      "outputs": [
        {
          "internalType": "bool",
          "name": "",
          "type": "bool"
        }
      ],
      "stateMutability": "view",
      "type": "function"
    }
  ],
  "bytecode": "0x608060405234801561001057600080fd5b506115b9806100206000396000f3fe60806040526004361061004a5760003560e01c80631cc2c9111461004f57806333c0f3191461006b5780634614c0b7146100945780634f64b2be146100d15780638a71bb2d14610114575b600080fd5b61006960048036038101906100649190610a16565b61013f565b005b34801561007757600080fd5b50610092600480360381019061008d9190610b9c565b610692565b005b3480156100a057600080fd5b506100bb60048036038101906100b69190610c5a565b61084d565b6040516100c89190610ca2565b60405180910390f35b3480156100dd57600080fd5b506100f860048036038101906100f39190610c5a565b61086d565b60405161010b9796959493929190610d6c565b60405180910390f35b34801561012057600080fd5b50610129610957565b6040516101369190610de2565b60405180910390f35b6001600082815260200190815260200160002060009054906101000a900460ff1661019f576040517f08c379a000000000000000000000000000000000000000000000000000000000815260040161019690610e49565b60405180910390fd5b60008060008381526020019081526020016000206040518060e001604052908160008201548152602001600182015481526020016002820180546101e290610e98565b80601f016020809104026020016040519081016040528092919081815260200182805461020e90610e98565b801561025b5780601f106102305761010080835404028352916020019161025b565b820191906000526020600020905b81548152906001019060200180831161023e57829003601f168201915b50505050508152602001600382015481526020016004820160009054906101000a900473ffffffffffffffffffffffffffffffffffffffff1673ffffffffffffffffffffffffffffffffffffffff1673ffffffffffffffffffffffffffffffffffffffff16815260200160058201548152602001600682015481525050905080600001513414610320576040517f08c379a000000000000000000000000000000000000000000000000000000000815260040161031790610f3b565b60405180910390fd5b60008373ffffffffffffffffffffffffffffffffffffffff16636352211e83602001516040518263ffffffff1660e01b815260040161035f9190610de2565b602060405180830381865afa15801561037c573d6000803e3d6000fd5b505050506040513d601f19601f820116820180604052508101906103a09190610f87565b90503073ffffffffffffffffffffffffffffffffffffffff168173ffffffffffffffffffffffffffffffffffffffff160361048b576000826080015173ffffffffffffffffffffffffffffffffffffffff16346040516103ff90610fe5565b60006040518083038185875af1925050503d806000811461043c576040519150601f19603f3d011682016040523d82523d6000602084013e610441565b606091505b5050905080610485576040517f08c379a000000000000000000000000000000000000000000000000000000000815260040161047c90611046565b60405180910390fd5b50610619565b60006064600f3461049c9190611095565b6104a69190611106565b9050600081346104b69190611137565b90506000846080015173ffffffffffffffffffffffffffffffffffffffff16836040516104e290610fe5565b60006040518083038185875af1925050503d806000811461051f576040519150601f19603f3d011682016040523d82523d6000602084013e610524565b606091505b5050905080610568576040517f08c379a000000000000000000000000000000000000000000000000000000000815260040161055f906111b7565b60405180910390fd5b60008473ffffffffffffffffffffffffffffffffffffffff168360405161058e90610fe5565b60006040518083038185875af1925050503d80600081146105cb576040519150601f19603f3d011682016040523d82523d6000602084013e6105d0565b606091505b5050905080610614576040517f08c379a000000000000000000000000000000000000000000000000000000000815260040161060b90611223565b60405180910390fd5b505050505b8373ffffffffffffffffffffffffffffffffffffffff166323b872dd823385602001516040518463ffffffff1660e01b815260040161065a93929190611252565b600060405180830381600087803b15801561067457600080fd5b505af1158015610688573d6000803e3d6000fd5b5050505050505050565b60008290505b81836106a49190611289565b811015610843576040518060e001604052808981526020018281526020018881526020014281526020013373ffffffffffffffffffffffffffffffffffffffff168152602001878152602001868152506000808381526020019081526020016000206000820151816000015560208201518160010155604082015181600201908161072f9190611469565b506060820151816003015560808201518160040160006101000a81548173ffffffffffffffffffffffffffffffffffffffff021916908373ffffffffffffffffffffffffffffffffffffffff16021790555060a0820151816005015560c08201518160060155905050600180600083815260200190815260200160002060006101000a81548160ff0219169083151502179055508373ffffffffffffffffffffffffffffffffffffffff166323b872dd3330846040518463ffffffff1660e01b815260040161080093929190611252565b600060405180830381600087803b15801561081a57600080fd5b505af115801561082e573d6000803e3d6000fd5b505050508061083c9061153b565b9050610698565b5050505050505050565b60016020528060005260406000206000915054906101000a900460ff1681565b600060205280600052604060002060009150905080600001549080600101549080600201805461089c90610e98565b80601f01602080910402602001604051908101604052809291908181526020018280546108c890610e98565b80156109155780601f106108ea57610100808354040283529160200191610915565b820191906000526020600020905b8154815290600101906020018083116108f857829003601f168201915b5050505050908060030154908060040160009054906101000a900473ffffffffffffffffffffffffffffffffffffffff16908060050154908060060154905087565b600f81565b6000604051905090565b600080fd5b600080fd5b600073ffffffffffffffffffffffffffffffffffffffff82169050919050565b600061099b82610970565b9050919050565b60006109ad82610990565b9050919050565b6109bd816109a2565b81146109c857600080fd5b50565b6000813590506109da816109b4565b92915050565b6000819050919050565b6109f3816109e0565b81146109fe57600080fd5b50565b600081359050610a10816109ea565b92915050565b60008060408385031215610a2d57610a2c610966565b5b6000610a3b858286016109cb565b9250506020610a4c85828601610a01565b9150509250929050565b600080fd5b600080fd5b6000601f19601f8301169050919050565b7f4e487b7100000000000000000000000000000000000000000000000000000000600052604160045260246000fd5b610aa982610a60565b810181811067ffffffffffffffff82111715610ac857610ac7610a71565b5b80604052505050565b6000610adb61095c565b9050610ae78282610aa0565b919050565b600067ffffffffffffffff821115610b0757610b06610a71565b5b610b1082610a60565b9050602081019050919050565b82818337600083830152505050565b6000610b3f610b3a84610aec565b610ad1565b905082815260208101848484011115610b5b57610b5a610a5b565b5b610b66848285610b1d565b509392505050565b600082601f830112610b8357610b82610a56565b5b8135610b93848260208601610b2c565b91505092915050565b600080600080600080600060e0888a031215610bbb57610bba610966565b5b6000610bc98a828b01610a01565b975050602088013567ffffffffffffffff811115610bea57610be961096b565b5b610bf68a828b01610b6e565b9650506040610c078a828b01610a01565b9550506060610c188a828b01610a01565b9450506080610c298a828b016109cb565b93505060a0610c3a8a828b01610a01565b92505060c0610c4b8a828b01610a01565b91505092959891949750929550565b600060208284031215610c7057610c6f610966565b5b6000610c7e84828501610a01565b91505092915050565b60008115159050919050565b610c9c81610c87565b82525050565b6000602082019050610cb76000830184610c93565b92915050565b610cc6816109e0565b82525050565b600081519050919050565b600082825260208201905092915050565b60005b83811015610d06578082015181840152602081019050610ceb565b60008484015250505050565b6000610d1d82610ccc565b610d278185610cd7565b9350610d37818560208601610ce8565b610d4081610a60565b840191505092915050565b6000610d5682610970565b9050919050565b610d6681610d4b565b82525050565b600060e082019050610d81600083018a610cbd565b610d8e6020830189610cbd565b8181036040830152610da08188610d12565b9050610daf6060830187610cbd565b610dbc6080830186610d5d565b610dc960a0830185610cbd565b610dd660c0830184610cbd565b98975050505050505050565b6000602082019050610df76000830184610cbd565b92915050565b7f546f6b656e20646f65736e277420657869737400000000000000000000000000600082015250565b6000610e33601383610cd7565b9150610e3e82610dfd565b602082019050919050565b60006020820190508181036000830152610e6281610e26565b9050919050565b7f4e487b7100000000000000000000000000000000000000000000000000000000600052602260045260246000fd5b60006002820490506001821680610eb057607f821691505b602082108103610ec357610ec2610e69565b5b50919050565b7f546f74616c206574686572206d75737420626520657175616c20746f2070726960008201527f6365206f662074686520746f6b656e0000000000000000000000000000000000602082015250565b6000610f25602f83610cd7565b9150610f3082610ec9565b604082019050919050565b60006020820190508181036000830152610f5481610f18565b9050919050565b610f6481610990565b8114610f6f57600080fd5b50565b600081519050610f8181610f5b565b92915050565b600060208284031215610f9d57610f9c610966565b5b6000610fab84828501610f72565b91505092915050565b600081905092915050565b50565b6000610fcf600083610fb4565b9150610fda82610fbf565b600082019050919050565b6000610ff082610fc2565b9150819050919050565b7f5472616e73616374696f6e206661696c65640000000000000000000000000000600082015250565b6000611030601283610cd7565b915061103b82610ffa565b602082019050919050565b6000602082019050818103600083015261105f81611023565b9050919050565b7f4e487b7100000000000000000000000000000000000000000000000000000000600052601160045260246000fd5b60006110a0826109e0565b91506110ab836109e0565b92508282026110b9816109e0565b915082820484148315176110d0576110cf611066565b5b5092915050565b7f4e487b7100000000000000000000000000000000000000000000000000000000600052601260045260246000fd5b6000611111826109e0565b915061111c836109e0565b92508261112c5761112b6110d7565b5b828204905092915050565b6000611142826109e0565b915061114d836109e0565b925082820390508181111561116557611164611066565b5b92915050565b7f5472616e73616374696f6e20746f2063726561746f72206661696c6564000000600082015250565b60006111a1601d83610cd7565b91506111ac8261116b565b602082019050919050565b600060208201905081810360008301526111d081611194565b9050919050565b7f5472616e73616374696f6e20746f206f776e6572206661696c65640000000000600082015250565b600061120d601b83610cd7565b9150611218826111d7565b602082019050919050565b6000602082019050818103600083015261123c81611200565b9050919050565b61124c81610990565b82525050565b60006060820190506112676000830186611243565b6112746020830185611243565b6112816040830184610cbd565b949350505050565b6000611294826109e0565b915061129f836109e0565b92508282019050808211156112b7576112b6611066565b5b92915050565b60008190508160005260206000209050919050565b60006020601f8301049050919050565b600082821b905092915050565b60006008830261131f7fffffffffffffffffffffffffffffffffffffffffffffffffffffffffffffffff826112e2565b61132986836112e2565b95508019841693508086168417925050509392505050565b6000819050919050565b600061136661136161135c846109e0565b611341565b6109e0565b9050919050565b6000819050919050565b6113808361134b565b61139461138c8261136d565b8484546112ef565b825550505050565b600090565b6113a961139c565b6113b4818484611377565b505050565b5b818110156113d8576113cd6000826113a1565b6001810190506113ba565b5050565b601f82111561141d576113ee816112bd565b6113f7846112d2565b81016020851015611406578190505b61141a611412856112d2565b8301826113b9565b50505b505050565b600082821c905092915050565b600061144060001984600802611422565b1980831691505092915050565b6000611459838361142f565b9150826002028217905092915050565b61147282610ccc565b67ffffffffffffffff81111561148b5761148a610a71565b5b6114958254610e98565b6114a08282856113dc565b600060209050601f8311600181146114d357600084156114c1578287015190505b6114cb858261144d565b865550611533565b601f1984166114e1866112bd565b60005b82811015611509578489015182556001820191506020850194506020810190506114e4565b868310156115265784890151611522601f89168261142f565b8355505b6001600288020188555050505b505050505050565b6000611546826109e0565b91507fffffffffffffffffffffffffffffffffffffffffffffffffffffffffffffffff820361157857611577611066565b5b60018201905091905056fea2646970667358221220ff3888ba39ababf9fb39db972c48b7a8af25def0a38e2b8b8d6ce5ec87d2803464736f6c63430008140033",
  "linkReferences": {},
  "deployedLinkReferences": {}
}