{
  "_format": "hh-sol-artifact-1",
  "contractName": "MusicNFT",
  "sourceName": "contracts/MusicNFT.sol",
  "abi": [
    {
      "inputs": [],
      "stateMutability": "nonpayable",
      "type": "constructor"
    },
    {
      "inputs": [
        {
          "internalType": "address",
          "name": "sender",
          "type": "address"
        },
        {
          "internalType": "uint256",
          "name": "tokenId",
          "type": "uint256"
        },
        {
          "internalType": "address",
          "name": "owner",
          "type": "address"
        }
      ],
      "name": "ERC721IncorrectOwner",
      "type": "error"
    },
    {
      "inputs": [
        {
          "internalType": "address",
          "name": "operator",
          "type": "address"
        },
        {
          "internalType": "uint256",
          "name": "tokenId",
          "type": "uint256"
        }
      ],
      "name": "ERC721InsufficientApproval",
      "type": "error"
    },
    {
      "inputs": [
        {
          "internalType": "address",
          "name": "approver",
          "type": "address"
        }
      ],
      "name": "ERC721InvalidApprover",
      "type": "error"
    },
    {
      "inputs": [
        {
          "internalType": "address",
          "name": "operator",
          "type": "address"
        }
      ],
      "name": "ERC721InvalidOperator",
      "type": "error"
    },
    {
      "inputs": [
        {
          "internalType": "address",
          "name": "owner",
          "type": "address"
        }
      ],
      "name": "ERC721InvalidOwner",
      "type": "error"
    },
    {
      "inputs": [
        {
          "internalType": "address",
          "name": "receiver",
          "type": "address"
        }
      ],
      "name": "ERC721InvalidReceiver",
      "type": "error"
    },
    {
      "inputs": [
        {
          "internalType": "address",
          "name": "sender",
          "type": "address"
        }
      ],
      "name": "ERC721InvalidSender",
      "type": "error"
    },
    {
      "inputs": [
        {
          "internalType": "uint256",
          "name": "tokenId",
          "type": "uint256"
        }
      ],
      "name": "ERC721NonexistentToken",
      "type": "error"
    },
    {
      "anonymous": false,
      "inputs": [
        {
          "indexed": true,
          "internalType": "address",
          "name": "owner",
          "type": "address"
        },
        {
          "indexed": true,
          "internalType": "address",
          "name": "approved",
          "type": "address"
        },
        {
          "indexed": true,
          "internalType": "uint256",
          "name": "tokenId",
          "type": "uint256"
        }
      ],
      "name": "Approval",
      "type": "event"
    },
    {
      "anonymous": false,
      "inputs": [
        {
          "indexed": true,
          "internalType": "address",
          "name": "owner",
          "type": "address"
        },
        {
          "indexed": true,
          "internalType": "address",
          "name": "operator",
          "type": "address"
        },
        {
          "indexed": false,
          "internalType": "bool",
          "name": "approved",
          "type": "bool"
        }
      ],
      "name": "ApprovalForAll",
      "type": "event"
    },
    {
      "anonymous": false,
      "inputs": [
        {
          "indexed": false,
          "internalType": "uint256",
          "name": "_fromTokenId",
          "type": "uint256"
        },
        {
          "indexed": false,
          "internalType": "uint256",
          "name": "_toTokenId",
          "type": "uint256"
        }
      ],
      "name": "BatchMetadataUpdate",
      "type": "event"
    },
    {
      "anonymous": false,
      "inputs": [
        {
          "indexed": false,
          "internalType": "uint256",
          "name": "_tokenId",
          "type": "uint256"
        }
      ],
      "name": "MetadataUpdate",
      "type": "event"
    },
    {
      "anonymous": false,
      "inputs": [
        {
          "indexed": true,
          "internalType": "address",
          "name": "from",
          "type": "address"
        },
        {
          "indexed": true,
          "internalType": "address",
          "name": "to",
          "type": "address"
        },
        {
          "indexed": true,
          "internalType": "uint256",
          "name": "tokenId",
          "type": "uint256"
        }
      ],
      "name": "Transfer",
      "type": "event"
    },
    {
      "inputs": [
        {
          "internalType": "address",
          "name": "to",
          "type": "address"
        },
        {
          "internalType": "uint256",
          "name": "tokenId",
          "type": "uint256"
        }
      ],
      "name": "approve",
      "outputs": [],
      "stateMutability": "nonpayable",
      "type": "function"
    },
    {
      "inputs": [
        {
          "internalType": "address",
          "name": "owner",
          "type": "address"
        }
      ],
      "name": "balanceOf",
      "outputs": [
        {
          "internalType": "uint256",
          "name": "",
          "type": "uint256"
        }
      ],
      "stateMutability": "view",
      "type": "function"
    },
    {
      "inputs": [
        {
          "internalType": "uint256",
          "name": "tokenId",
          "type": "uint256"
        }
      ],
      "name": "getApproved",
      "outputs": [
        {
          "internalType": "address",
          "name": "",
          "type": "address"
        }
      ],
      "stateMutability": "view",
      "type": "function"
    },
    {
      "inputs": [],
      "name": "getTokenId",
      "outputs": [
        {
          "internalType": "uint256",
          "name": "",
          "type": "uint256"
        }
      ],
      "stateMutability": "view",
      "type": "function"
    },
    {
      "inputs": [
        {
          "internalType": "address",
          "name": "owner",
          "type": "address"
        },
        {
          "internalType": "address",
          "name": "operator",
          "type": "address"
        }
      ],
      "name": "isApprovedForAll",
      "outputs": [
        {
          "internalType": "bool",
          "name": "",
          "type": "bool"
        }
      ],
      "stateMutability": "view",
      "type": "function"
    },
    {
      "inputs": [
        {
          "internalType": "string",
          "name": "_tokenURI",
          "type": "string"
        },
        {
          "internalType": "uint256",
          "name": "_numberOfEditions",
          "type": "uint256"
        }
      ],
      "name": "mintNFT",
      "outputs": [],
      "stateMutability": "nonpayable",
      "type": "function"
    },
    {
      "inputs": [],
      "name": "name",
      "outputs": [
        {
          "internalType": "string",
          "name": "",
          "type": "string"
        }
      ],
      "stateMutability": "view",
      "type": "function"
    },
    {
      "inputs": [
        {
          "internalType": "uint256",
          "name": "tokenId",
          "type": "uint256"
        }
      ],
      "name": "ownerOf",
      "outputs": [
        {
          "internalType": "address",
          "name": "",
          "type": "address"
        }
      ],
      "stateMutability": "view",
      "type": "function"
    },
    {
      "inputs": [
        {
          "internalType": "address",
          "name": "from",
          "type": "address"
        },
        {
          "internalType": "address",
          "name": "to",
          "type": "address"
        },
        {
          "internalType": "uint256",
          "name": "tokenId",
          "type": "uint256"
        }
      ],
      "name": "safeTransferFrom",
      "outputs": [],
      "stateMutability": "nonpayable",
      "type": "function"
    },
    {
      "inputs": [
        {
          "internalType": "address",
          "name": "from",
          "type": "address"
        },
        {
          "internalType": "address",
          "name": "to",
          "type": "address"
        },
        {
          "internalType": "uint256",
          "name": "tokenId",
          "type": "uint256"
        },
        {
          "internalType": "bytes",
          "name": "data",
          "type": "bytes"
        }
      ],
      "name": "safeTransferFrom",
      "outputs": [],
      "stateMutability": "nonpayable",
      "type": "function"
    },
    {
      "inputs": [
        {
          "internalType": "address",
          "name": "operator",
          "type": "address"
        },
        {
          "internalType": "bool",
          "name": "approved",
          "type": "bool"
        }
      ],
      "name": "setApprovalForAll",
      "outputs": [],
      "stateMutability": "nonpayable",
      "type": "function"
    },
    {
      "inputs": [
        {
          "internalType": "bytes4",
          "name": "interfaceId",
          "type": "bytes4"
        }
      ],
      "name": "supportsInterface",
      "outputs": [
        {
          "internalType": "bool",
          "name": "",
          "type": "bool"
        }
      ],
      "stateMutability": "view",
      "type": "function"
    },
    {
      "inputs": [],
      "name": "symbol",
      "outputs": [
        {
          "internalType": "string",
          "name": "",
          "type": "string"
        }
      ],
      "stateMutability": "view",
      "type": "function"
    },
    {
      "inputs": [
        {
          "internalType": "uint256",
          "name": "tokenId",
          "type": "uint256"
        }
      ],
      "name": "tokenURI",
      "outputs": [
        {
          "internalType": "string",
          "name": "",
          "type": "string"
        }
      ],
      "stateMutability": "view",
      "type": "function"
    },
    {
      "inputs": [
        {
          "internalType": "address",
          "name": "from",
          "type": "address"
        },
        {
          "internalType": "address",
          "name": "to",
          "type": "address"
        },
        {
          "internalType": "uint256",
          "name": "tokenId",
          "type": "uint256"
        }
      ],
      "name": "transferFrom",
      "outputs": [],
      "stateMutability": "nonpayable",
      "type": "function"
    }
  ],
  "bytecode": "0x60806040523480156200001157600080fd5b506040518060400160405280600881526020017f4d757369634e46540000000000000000000000000000000000000000000000008152506040518060400160405280600481526020017f4d4e46540000000000000000000000000000000000000000000000000000000081525081600090816200008f91906200032c565b508060019081620000a191906200032c565b505050600160078190555062000413565b600081519050919050565b7f4e487b7100000000000000000000000000000000000000000000000000000000600052604160045260246000fd5b7f4e487b7100000000000000000000000000000000000000000000000000000000600052602260045260246000fd5b600060028204905060018216806200013457607f821691505b6020821081036200014a5762000149620000ec565b5b50919050565b60008190508160005260206000209050919050565b60006020601f8301049050919050565b600082821b905092915050565b600060088302620001b47fffffffffffffffffffffffffffffffffffffffffffffffffffffffffffffffff8262000175565b620001c0868362000175565b95508019841693508086168417925050509392505050565b6000819050919050565b6000819050919050565b60006200020d620002076200020184620001d8565b620001e2565b620001d8565b9050919050565b6000819050919050565b6200022983620001ec565b62000241620002388262000214565b84845462000182565b825550505050565b600090565b6200025862000249565b620002658184846200021e565b505050565b5b818110156200028d57620002816000826200024e565b6001810190506200026b565b5050565b601f821115620002dc57620002a68162000150565b620002b18462000165565b81016020851015620002c1578190505b620002d9620002d08562000165565b8301826200026a565b50505b505050565b600082821c905092915050565b60006200030160001984600802620002e1565b1980831691505092915050565b60006200031c8383620002ee565b9150826002028217905092915050565b6200033782620000b2565b67ffffffffffffffff811115620003535762000352620000bd565b5b6200035f82546200011b565b6200036c82828562000291565b600060209050601f831160018114620003a457600084156200038f578287015190505b6200039b85826200030e565b8655506200040b565b601f198416620003b48662000150565b60005b82811015620003de57848901518255600182019150602085019450602081019050620003b7565b86831015620003fe5784890151620003fa601f891682620002ee565b8355505b6001600288020188555050505b505050505050565b61243180620004236000396000f3fe608060405234801561001057600080fd5b50600436106100f55760003560e01c80635afa3a7211610097578063a22cb46511610066578063a22cb46514610284578063b88d4fde146102a0578063c87b56dd146102bc578063e985e9c5146102ec576100f5565b80635afa3a72146101ea5780636352211e1461020657806370a082311461023657806395d89b4114610266576100f5565b8063081812fc116100d3578063081812fc14610166578063095ea7b31461019657806323b872dd146101b257806342842e0e146101ce576100f5565b8063010a38f5146100fa57806301ffc9a71461011857806306fdde0314610148575b600080fd5b61010261031c565b60405161010f9190611836565b60405180910390f35b610132600480360381019061012d91906118bd565b610326565b60405161013f9190611905565b60405180910390f35b610150610387565b60405161015d91906119b0565b60405180910390f35b610180600480360381019061017b91906119fe565b610419565b60405161018d9190611a6c565b60405180910390f35b6101b060048036038101906101ab9190611ab3565b610435565b005b6101cc60048036038101906101c79190611af3565b61044b565b005b6101e860048036038101906101e39190611af3565b61054d565b005b61020460048036038101906101ff9190611c7b565b61056d565b005b610220600480360381019061021b91906119fe565b6105c3565b60405161022d9190611a6c565b60405180910390f35b610250600480360381019061024b9190611cd7565b6105d5565b60405161025d9190611836565b60405180910390f35b61026e61068f565b60405161027b91906119b0565b60405180910390f35b61029e60048036038101906102999190611d30565b610721565b005b6102ba60048036038101906102b59190611e11565b610737565b005b6102d660048036038101906102d191906119fe565b610754565b6040516102e391906119b0565b60405180910390f35b61030660048036038101906103019190611e94565b610867565b6040516103139190611905565b60405180910390f35b6000600754905090565b6000634906490660e01b7bffffffffffffffffffffffffffffffffffffffffffffffffffffffff1916827bffffffffffffffffffffffffffffffffffffffffffffffffffffffff19161480610380575061037f826108fb565b5b9050919050565b60606000805461039690611f03565b80601f01602080910402602001604051908101604052809291908181526020018280546103c290611f03565b801561040f5780601f106103e45761010080835404028352916020019161040f565b820191906000526020600020905b8154815290600101906020018083116103f257829003601f168201915b5050505050905090565b6000610424826109dd565b5061042e82610a65565b9050919050565b6104478282610442610aa2565b610aaa565b5050565b600073ffffffffffffffffffffffffffffffffffffffff168273ffffffffffffffffffffffffffffffffffffffff16036104bd5760006040517f64a0ae920000000000000000000000000000000000000000000000000000000081526004016104b49190611a6c565b60405180910390fd5b60006104d183836104cc610aa2565b610abc565b90508373ffffffffffffffffffffffffffffffffffffffff168173ffffffffffffffffffffffffffffffffffffffff1614610547578382826040517f64283d7b00000000000000000000000000000000000000000000000000000000815260040161053e93929190611f34565b60405180910390fd5b50505050565b61056883838360405180602001604052806000815250610737565b505050565b6000600190505b8181116105be5761058733600754610cd6565b61059360075484610cf4565b600760008154809291906105a690611f9a565b919050555080806105b690611f9a565b915050610574565b505050565b60006105ce826109dd565b9050919050565b60008073ffffffffffffffffffffffffffffffffffffffff168273ffffffffffffffffffffffffffffffffffffffff16036106485760006040517f89c62b6400000000000000000000000000000000000000000000000000000000815260040161063f9190611a6c565b60405180910390fd5b600360008373ffffffffffffffffffffffffffffffffffffffff1673ffffffffffffffffffffffffffffffffffffffff168152602001908152602001600020549050919050565b60606001805461069e90611f03565b80601f01602080910402602001604051908101604052809291908181526020018280546106ca90611f03565b80156107175780601f106106ec57610100808354040283529160200191610717565b820191906000526020600020905b8154815290600101906020018083116106fa57829003601f168201915b5050505050905090565b61073361072c610aa2565b8383610d50565b5050565b61074284848461044b565b61074e84848484610ebf565b50505050565b606061075f826109dd565b50600060066000848152602001908152602001600020805461078090611f03565b80601f01602080910402602001604051908101604052809291908181526020018280546107ac90611f03565b80156107f95780601f106107ce576101008083540402835291602001916107f9565b820191906000526020600020905b8154815290600101906020018083116107dc57829003601f168201915b50505050509050600061080a611076565b9050600081510361081f578192505050610862565b60008251111561085457808260405160200161083c92919061201e565b60405160208183030381529060405292505050610862565b61085d8461108d565b925050505b919050565b6000600560008473ffffffffffffffffffffffffffffffffffffffff1673ffffffffffffffffffffffffffffffffffffffff16815260200190815260200160002060008373ffffffffffffffffffffffffffffffffffffffff1673ffffffffffffffffffffffffffffffffffffffff16815260200190815260200160002060009054906101000a900460ff16905092915050565b60007f80ac58cd000000000000000000000000000000000000000000000000000000007bffffffffffffffffffffffffffffffffffffffffffffffffffffffff1916827bffffffffffffffffffffffffffffffffffffffffffffffffffffffff191614806109c657507f5b5e139f000000000000000000000000000000000000000000000000000000007bffffffffffffffffffffffffffffffffffffffffffffffffffffffff1916827bffffffffffffffffffffffffffffffffffffffffffffffffffffffff1916145b806109d657506109d5826110f6565b5b9050919050565b6000806109e983611160565b9050600073ffffffffffffffffffffffffffffffffffffffff168173ffffffffffffffffffffffffffffffffffffffff1603610a5c57826040517f7e273289000000000000000000000000000000000000000000000000000000008152600401610a539190611836565b60405180910390fd5b80915050919050565b60006004600083815260200190815260200160002060009054906101000a900473ffffffffffffffffffffffffffffffffffffffff169050919050565b600033905090565b610ab7838383600161119d565b505050565b600080610ac884611160565b9050600073ffffffffffffffffffffffffffffffffffffffff168373ffffffffffffffffffffffffffffffffffffffff1614610b0a57610b09818486611362565b5b600073ffffffffffffffffffffffffffffffffffffffff168173ffffffffffffffffffffffffffffffffffffffff1614610b9b57610b4c60008560008061119d565b6001600360008373ffffffffffffffffffffffffffffffffffffffff1673ffffffffffffffffffffffffffffffffffffffff168152602001908152602001600020600082825403925050819055505b600073ffffffffffffffffffffffffffffffffffffffff168573ffffffffffffffffffffffffffffffffffffffff1614610c1e576001600360008773ffffffffffffffffffffffffffffffffffffffff1673ffffffffffffffffffffffffffffffffffffffff168152602001908152602001600020600082825401925050819055505b846002600086815260200190815260200160002060006101000a81548173ffffffffffffffffffffffffffffffffffffffff021916908373ffffffffffffffffffffffffffffffffffffffff160217905550838573ffffffffffffffffffffffffffffffffffffffff168273ffffffffffffffffffffffffffffffffffffffff167fddf252ad1be2c89b69c2b068fc378daa952ba7f163c4a11628f55a4df523b3ef60405160405180910390a4809150509392505050565b610cf0828260405180602001604052806000815250611426565b5050565b80600660008481526020019081526020016000209081610d1491906121ee565b507ff8e1a15aba9398e019f0b49df1a4fde98ee17ae345cb5f6b5e2c27f5033e8ce782604051610d449190611836565b60405180910390a15050565b600073ffffffffffffffffffffffffffffffffffffffff168273ffffffffffffffffffffffffffffffffffffffff1603610dc157816040517f5b08ba18000000000000000000000000000000000000000000000000000000008152600401610db89190611a6c565b60405180910390fd5b80600560008573ffffffffffffffffffffffffffffffffffffffff1673ffffffffffffffffffffffffffffffffffffffff16815260200190815260200160002060008473ffffffffffffffffffffffffffffffffffffffff1673ffffffffffffffffffffffffffffffffffffffff16815260200190815260200160002060006101000a81548160ff0219169083151502179055508173ffffffffffffffffffffffffffffffffffffffff168373ffffffffffffffffffffffffffffffffffffffff167f17307eab39ab6107e8899845ad3d59bd9653f200f220920489ca2b5937696c3183604051610eb29190611905565b60405180910390a3505050565b60008373ffffffffffffffffffffffffffffffffffffffff163b1115611070578273ffffffffffffffffffffffffffffffffffffffff1663150b7a02610f03610aa2565b8685856040518563ffffffff1660e01b8152600401610f259493929190612315565b6020604051808303816000875af1925050508015610f6157506040513d601f19601f82011682018060405250810190610f5e9190612376565b60015b610fe5573d8060008114610f91576040519150601f19603f3d011682016040523d82523d6000602084013e610f96565b606091505b506000815103610fdd57836040517f64a0ae92000000000000000000000000000000000000000000000000000000008152600401610fd49190611a6c565b60405180910390fd5b805181602001fd5b63150b7a0260e01b7bffffffffffffffffffffffffffffffffffffffffffffffffffffffff1916817bffffffffffffffffffffffffffffffffffffffffffffffffffffffff19161461106e57836040517f64a0ae920000000000000000000000000000000000000000000000000000000081526004016110659190611a6c565b60405180910390fd5b505b50505050565b606060405180602001604052806000815250905090565b6060611098826109dd565b5060006110a3611076565b905060008151116110c357604051806020016040528060008152506110ee565b806110cd84611442565b6040516020016110de92919061201e565b6040516020818303038152906040525b915050919050565b60007f01ffc9a7000000000000000000000000000000000000000000000000000000007bffffffffffffffffffffffffffffffffffffffffffffffffffffffff1916827bffffffffffffffffffffffffffffffffffffffffffffffffffffffff1916149050919050565b60006002600083815260200190815260200160002060009054906101000a900473ffffffffffffffffffffffffffffffffffffffff169050919050565b80806111d65750600073ffffffffffffffffffffffffffffffffffffffff168273ffffffffffffffffffffffffffffffffffffffff1614155b1561130a5760006111e6846109dd565b9050600073ffffffffffffffffffffffffffffffffffffffff168373ffffffffffffffffffffffffffffffffffffffff161415801561125157508273ffffffffffffffffffffffffffffffffffffffff168173ffffffffffffffffffffffffffffffffffffffff1614155b801561126457506112628184610867565b155b156112a657826040517fa9fbf51f00000000000000000000000000000000000000000000000000000000815260040161129d9190611a6c565b60405180910390fd5b811561130857838573ffffffffffffffffffffffffffffffffffffffff168273ffffffffffffffffffffffffffffffffffffffff167f8c5be1e5ebec7d5bd14f71427d1e84f3dd0314c0f7b2291e5b200ac8c7c3b92560405160405180910390a45b505b836004600085815260200190815260200160002060006101000a81548173ffffffffffffffffffffffffffffffffffffffff021916908373ffffffffffffffffffffffffffffffffffffffff16021790555050505050565b61136d838383611510565b61142157600073ffffffffffffffffffffffffffffffffffffffff168373ffffffffffffffffffffffffffffffffffffffff16036113e257806040517f7e2732890000000000000000000000000000000000000000000000000000000081526004016113d99190611836565b60405180910390fd5b81816040517f177e802f0000000000000000000000000000000000000000000000000000000081526004016114189291906123a3565b60405180910390fd5b505050565b61143083836115d1565b61143d6000848484610ebf565b505050565b606060006001611451846116ca565b01905060008167ffffffffffffffff8111156114705761146f611b50565b5b6040519080825280601f01601f1916602001820160405280156114a25781602001600182028036833780820191505090505b509050600082602001820190505b600115611505578080600190039150507f3031323334353637383961626364656600000000000000000000000000000000600a86061a8153600a85816114f9576114f86123cc565b5b049450600085036114b0575b819350505050919050565b60008073ffffffffffffffffffffffffffffffffffffffff168373ffffffffffffffffffffffffffffffffffffffff16141580156115c857508273ffffffffffffffffffffffffffffffffffffffff168473ffffffffffffffffffffffffffffffffffffffff16148061158957506115888484610867565b5b806115c757508273ffffffffffffffffffffffffffffffffffffffff166115af83610a65565b73ffffffffffffffffffffffffffffffffffffffff16145b5b90509392505050565b600073ffffffffffffffffffffffffffffffffffffffff168273ffffffffffffffffffffffffffffffffffffffff16036116435760006040517f64a0ae9200000000000000000000000000000000000000000000000000000000815260040161163a9190611a6c565b60405180910390fd5b600061165183836000610abc565b9050600073ffffffffffffffffffffffffffffffffffffffff168173ffffffffffffffffffffffffffffffffffffffff16146116c55760006040517f73c6ac6e0000000000000000000000000000000000000000000000000000000081526004016116bc9190611a6c565b60405180910390fd5b505050565b600080600090507a184f03e93ff9f4daa797ed6e38ed64bf6a1f0100000000000000008310611728577a184f03e93ff9f4daa797ed6e38ed64bf6a1f010000000000000000838161171e5761171d6123cc565b5b0492506040810190505b6d04ee2d6d415b85acef81000000008310611765576d04ee2d6d415b85acef8100000000838161175b5761175a6123cc565b5b0492506020810190505b662386f26fc10000831061179457662386f26fc10000838161178a576117896123cc565b5b0492506010810190505b6305f5e10083106117bd576305f5e10083816117b3576117b26123cc565b5b0492506008810190505b61271083106117e25761271083816117d8576117d76123cc565b5b0492506004810190505b6064831061180557606483816117fb576117fa6123cc565b5b0492506002810190505b600a8310611814576001810190505b80915050919050565b6000819050919050565b6118308161181d565b82525050565b600060208201905061184b6000830184611827565b92915050565b6000604051905090565b600080fd5b600080fd5b60007fffffffff0000000000000000000000000000000000000000000000000000000082169050919050565b61189a81611865565b81146118a557600080fd5b50565b6000813590506118b781611891565b92915050565b6000602082840312156118d3576118d261185b565b5b60006118e1848285016118a8565b91505092915050565b60008115159050919050565b6118ff816118ea565b82525050565b600060208201905061191a60008301846118f6565b92915050565b600081519050919050565b600082825260208201905092915050565b60005b8381101561195a57808201518184015260208101905061193f565b60008484015250505050565b6000601f19601f8301169050919050565b600061198282611920565b61198c818561192b565b935061199c81856020860161193c565b6119a581611966565b840191505092915050565b600060208201905081810360008301526119ca8184611977565b905092915050565b6119db8161181d565b81146119e657600080fd5b50565b6000813590506119f8816119d2565b92915050565b600060208284031215611a1457611a1361185b565b5b6000611a22848285016119e9565b91505092915050565b600073ffffffffffffffffffffffffffffffffffffffff82169050919050565b6000611a5682611a2b565b9050919050565b611a6681611a4b565b82525050565b6000602082019050611a816000830184611a5d565b92915050565b611a9081611a4b565b8114611a9b57600080fd5b50565b600081359050611aad81611a87565b92915050565b60008060408385031215611aca57611ac961185b565b5b6000611ad885828601611a9e565b9250506020611ae9858286016119e9565b9150509250929050565b600080600060608486031215611b0c57611b0b61185b565b5b6000611b1a86828701611a9e565b9350506020611b2b86828701611a9e565b9250506040611b3c868287016119e9565b9150509250925092565b600080fd5b600080fd5b7f4e487b7100000000000000000000000000000000000000000000000000000000600052604160045260246000fd5b611b8882611966565b810181811067ffffffffffffffff82111715611ba757611ba6611b50565b5b80604052505050565b6000611bba611851565b9050611bc68282611b7f565b919050565b600067ffffffffffffffff821115611be657611be5611b50565b5b611bef82611966565b9050602081019050919050565b82818337600083830152505050565b6000611c1e611c1984611bcb565b611bb0565b905082815260208101848484011115611c3a57611c39611b4b565b5b611c45848285611bfc565b509392505050565b600082601f830112611c6257611c61611b46565b5b8135611c72848260208601611c0b565b91505092915050565b60008060408385031215611c9257611c9161185b565b5b600083013567ffffffffffffffff811115611cb057611caf611860565b5b611cbc85828601611c4d565b9250506020611ccd858286016119e9565b9150509250929050565b600060208284031215611ced57611cec61185b565b5b6000611cfb84828501611a9e565b91505092915050565b611d0d816118ea565b8114611d1857600080fd5b50565b600081359050611d2a81611d04565b92915050565b60008060408385031215611d4757611d4661185b565b5b6000611d5585828601611a9e565b9250506020611d6685828601611d1b565b9150509250929050565b600067ffffffffffffffff821115611d8b57611d8a611b50565b5b611d9482611966565b9050602081019050919050565b6000611db4611daf84611d70565b611bb0565b905082815260208101848484011115611dd057611dcf611b4b565b5b611ddb848285611bfc565b509392505050565b600082601f830112611df857611df7611b46565b5b8135611e08848260208601611da1565b91505092915050565b60008060008060808587031215611e2b57611e2a61185b565b5b6000611e3987828801611a9e565b9450506020611e4a87828801611a9e565b9350506040611e5b878288016119e9565b925050606085013567ffffffffffffffff811115611e7c57611e7b611860565b5b611e8887828801611de3565b91505092959194509250565b60008060408385031215611eab57611eaa61185b565b5b6000611eb985828601611a9e565b9250506020611eca85828601611a9e565b9150509250929050565b7f4e487b7100000000000000000000000000000000000000000000000000000000600052602260045260246000fd5b60006002820490506001821680611f1b57607f821691505b602082108103611f2e57611f2d611ed4565b5b50919050565b6000606082019050611f496000830186611a5d565b611f566020830185611827565b611f636040830184611a5d565b949350505050565b7f4e487b7100000000000000000000000000000000000000000000000000000000600052601160045260246000fd5b6000611fa58261181d565b91507fffffffffffffffffffffffffffffffffffffffffffffffffffffffffffffffff8203611fd757611fd6611f6b565b5b600182019050919050565b600081905092915050565b6000611ff882611920565b6120028185611fe2565b935061201281856020860161193c565b80840191505092915050565b600061202a8285611fed565b91506120368284611fed565b91508190509392505050565b60008190508160005260206000209050919050565b60006020601f8301049050919050565b600082821b905092915050565b6000600883026120a47fffffffffffffffffffffffffffffffffffffffffffffffffffffffffffffffff82612067565b6120ae8683612067565b95508019841693508086168417925050509392505050565b6000819050919050565b60006120eb6120e66120e18461181d565b6120c6565b61181d565b9050919050565b6000819050919050565b612105836120d0565b612119612111826120f2565b848454612074565b825550505050565b600090565b61212e612121565b6121398184846120fc565b505050565b5b8181101561215d57612152600082612126565b60018101905061213f565b5050565b601f8211156121a25761217381612042565b61217c84612057565b8101602085101561218b578190505b61219f61219785612057565b83018261213e565b50505b505050565b600082821c905092915050565b60006121c5600019846008026121a7565b1980831691505092915050565b60006121de83836121b4565b9150826002028217905092915050565b6121f782611920565b67ffffffffffffffff8111156122105761220f611b50565b5b61221a8254611f03565b612225828285612161565b600060209050601f8311600181146122585760008415612246578287015190505b61225085826121d2565b8655506122b8565b601f19841661226686612042565b60005b8281101561228e57848901518255600182019150602085019450602081019050612269565b868310156122ab57848901516122a7601f8916826121b4565b8355505b6001600288020188555050505b505050505050565b600081519050919050565b600082825260208201905092915050565b60006122e7826122c0565b6122f181856122cb565b935061230181856020860161193c565b61230a81611966565b840191505092915050565b600060808201905061232a6000830187611a5d565b6123376020830186611a5d565b6123446040830185611827565b818103606083015261235681846122dc565b905095945050505050565b60008151905061237081611891565b92915050565b60006020828403121561238c5761238b61185b565b5b600061239a84828501612361565b91505092915050565b60006040820190506123b86000830185611a5d565b6123c56020830184611827565b9392505050565b7f4e487b7100000000000000000000000000000000000000000000000000000000600052601260045260246000fdfea264697066735822122036a35a647f8eb78a54b3ffd1617de3d54c98e7cde6ecd71a7891869dc0b2012664736f6c63430008140033",
  "linkReferences": {},
  "deployedLinkReferences": {}
}